{
  "_format": "hh-sol-artifact-1",
  "contractName": "ExampleContract",
  "sourceName": "src/contracts/examples/ExampleContract.sol",
  "abi": [
    {
      "inputs": [],
      "name": "MAX_SIGNED_INT",
      "outputs": [
        {
          "internalType": "int256",
          "name": "",
          "type": "int256"
        }
      ],
      "stateMutability": "view",
      "type": "function"
    },
    {
      "inputs": [],
      "name": "MIN_SIGNED_INT",
      "outputs": [
        {
          "internalType": "int256",
          "name": "",
          "type": "int256"
        }
      ],
      "stateMutability": "view",
      "type": "function"
    },
    {
      "inputs": [],
      "name": "ROOT",
      "outputs": [
        {
          "internalType": "int256",
          "name": "",
          "type": "int256"
        }
      ],
      "stateMutability": "view",
      "type": "function"
    },
    {
      "inputs": [
        {
          "internalType": "int256",
          "name": "x",
          "type": "int256"
        }
      ],
      "name": "abs",
      "outputs": [
        {
          "internalType": "int256",
          "name": "",
          "type": "int256"
        }
      ],
      "stateMutability": "pure",
      "type": "function"
    },
    {
      "inputs": [
        {
          "internalType": "int256",
          "name": "a",
          "type": "int256"
        },
        {
          "internalType": "int256",
          "name": "b",
          "type": "int256"
        }
      ],
      "name": "add",
      "outputs": [
        {
          "internalType": "int256",
          "name": "",
          "type": "int256"
        }
      ],
      "stateMutability": "view",
      "type": "function"
    },
    {
      "inputs": [
        {
          "internalType": "uint224",
          "name": "u",
          "type": "uint224"
        }
      ],
      "name": "convertUintToInt",
      "outputs": [
        {
          "internalType": "int256",
          "name": "",
          "type": "int256"
        }
      ],
      "stateMutability": "pure",
      "type": "function"
    },
    {
      "inputs": [
        {
          "internalType": "int256",
          "name": "a",
          "type": "int256"
        },
        {
          "internalType": "int256",
          "name": "b",
          "type": "int256"
        }
      ],
      "name": "div",
      "outputs": [
        {
          "internalType": "int256",
          "name": "",
          "type": "int256"
        }
      ],
      "stateMutability": "pure",
      "type": "function"
    },
    {
      "inputs": [
        {
          "internalType": "int256",
          "name": "a",
          "type": "int256"
        },
        {
          "internalType": "int256",
          "name": "b",
          "type": "int256"
        }
      ],
      "name": "mul",
      "outputs": [
        {
          "internalType": "int256",
          "name": "",
          "type": "int256"
        }
      ],
      "stateMutability": "view",
      "type": "function"
    },
    {
      "inputs": [
        {
          "internalType": "int256",
          "name": "a",
          "type": "int256"
        }
      ],
      "name": "square",
      "outputs": [
        {
          "internalType": "int256",
          "name": "",
          "type": "int256"
        }
      ],
      "stateMutability": "view",
      "type": "function"
    },
    {
      "inputs": [
        {
          "internalType": "int256",
          "name": "a",
          "type": "int256"
        },
        {
          "internalType": "int256",
          "name": "b",
          "type": "int256"
        }
      ],
      "name": "sub",
      "outputs": [
        {
          "internalType": "int256",
          "name": "",
          "type": "int256"
        }
      ],
      "stateMutability": "view",
      "type": "function"
    }
  ],
  "bytecode": "0x60806040527f7fffffffffffffffffffffffffffffffffffffffffffffffffffffffffffffff6000557f80000000000000000000000000000000000000000000000000000000000000006001556fb504f333f9de6484597d89b3754abe9f60025534801561006c57600080fd5b50610a678061007c6000396000f3fe608060405234801561001057600080fd5b506004361061009e5760003560e01c806399e08d3a1161006657806399e08d3a1461016f578063a5f3c23b1461019f578063adefc37b146101cf578063bbe93d91146101ff578063e09c7e3c1461022f5761009e565b80631b5ac4b5146100a35780631b755565146100d35780632797ec45146100f157806343509138146101215780635909c12f14610151575b600080fd5b6100bd60048036038101906100b891906106c8565b61024d565b6040516100ca91906108e5565b60405180910390f35b6100db610269565b6040516100e891906108e5565b60405180910390f35b61010b600480360381019061010691906106c8565b61026f565b60405161011891906108e5565b60405180910390f35b61013b600480360381019061013691906106f1565b6102c8565b60405161014891906108e5565b60405180910390f35b61015961031f565b60405161016691906108e5565b60405180910390f35b6101896004803603810190610184919061072d565b610325565b60405161019691906108e5565b60405180910390f35b6101b960048036038101906101b491906106f1565b610355565b6040516101c691906108e5565b60405180910390f35b6101e960048036038101906101e491906106f1565b610420565b6040516101f691906108e5565b60405180910390f35b610219600480360381019061021491906106f1565b6104eb565b60405161022691906108e5565b60405180910390f35b6102376105dd565b60405161024491906108e5565b60405180910390f35b6000808212156102605781600003610262565b815b9050919050565b60005481565b600060025461027d8361024d565b13156102be576040517f08c379a00000000000000000000000000000000000000000000000000000000081526004016102b590610940565b60405180910390fd5b8182029050919050565b60008082141561030d576040517f08c379a0000000000000000000000000000000000000000000000000000000008152600401610304906109a0565b60405180910390fd5b81838161031657fe5b05905092915050565b60025481565b600061034e827bffffffffffffffffffffffffffffffffffffffffffffffffffffffff166105e3565b9050919050565b600080831380156103665750600082135b156103b75781600054038313156103b2576040517f08c379a00000000000000000000000000000000000000000000000000000000081526004016103a990610920565b60405180910390fd5b610415565b6000831280156103c75750600082125b15610414578160015403831215610413576040517f08c379a000000000000000000000000000000000000000000000000000000000815260040161040a90610960565b60405180910390fd5b5b5b818301905092915050565b600080831380156104315750600082125b1561048257816000540183131561047d576040517f08c379a000000000000000000000000000000000000000000000000000000000815260040161047490610920565b60405180910390fd5b6104e0565b6000831280156104925750600082135b156104df5781600154018312156104de576040517f08c379a00000000000000000000000000000000000000000000000000000000081526004016104d590610960565b60405180910390fd5b5b5b818303905092915050565b60006002546104f98461024d565b12610561576105078361024d565b6000548161051157fe5b0561051b8361024d565b131561055c576040517f08c379a000000000000000000000000000000000000000000000000000000000815260040161055390610900565b60405180910390fd5b6105d2565b60025461056d8361024d565b126105d15761057b8261024d565b6000548161058557fe5b0561058f8461024d565b13156105d0576040517f08c379a00000000000000000000000000000000000000000000000000000000081526004016105c790610980565b60405180910390fd5b5b5b818302905092915050565b60015481565b60008060007bffffffffffffffffffffffffffffffffffffffffffffffffffffffff90506002600182037bffffffffffffffffffffffffffffffffffffffffffffffffffffffff168161063257fe5b047bffffffffffffffffffffffffffffffffffffffffffffffffffffffff16847bffffffffffffffffffffffffffffffffffffffffffffffffffffffff16116106885760008401915081601b0b92505050610699565b600181850303915081601b0b925050505b919050565b6000813590506106ad81610a03565b92915050565b6000813590506106c281610a1a565b92915050565b6000602082840312156106da57600080fd5b60006106e88482850161069e565b91505092915050565b6000806040838503121561070457600080fd5b60006107128582860161069e565b92505060206107238582860161069e565b9150509250929050565b60006020828403121561073f57600080fd5b600061074d848285016106b3565b91505092915050565b61075f816109d1565b82525050565b60006107726010836109c0565b91507f77696c6c206f766572666c6f773a2061000000000000000000000000000000006000830152602082019050919050565b60006107b2601c836109c0565b91507f77696c6c206f766572666c6f77206d6178207369676e656420696e74000000006000830152602082019050919050565b60006107f2600d836109c0565b91507f77696c6c206f766572666c6f77000000000000000000000000000000000000006000830152602082019050919050565b6000610832601c836109c0565b91507f77696c6c206f766572666c6f77206d696e207369676e656420696e74000000006000830152602082019050919050565b60006108726010836109c0565b91507f77696c6c206f766572666c6f773a2062000000000000000000000000000000006000830152602082019050919050565b60006108b26015836109c0565b91507f63616e6e6f7420646976696465206279207a65726f00000000000000000000006000830152602082019050919050565b60006020820190506108fa6000830184610756565b92915050565b6000602082019050818103600083015261091981610765565b9050919050565b60006020820190508181036000830152610939816107a5565b9050919050565b60006020820190508181036000830152610959816107e5565b9050919050565b6000602082019050818103600083015261097981610825565b9050919050565b6000602082019050818103600083015261099981610865565b9050919050565b600060208201905081810360008301526109b9816108a5565b9050919050565b600082825260208201905092915050565b6000819050919050565b60007bffffffffffffffffffffffffffffffffffffffffffffffffffffffff82169050919050565b610a0c816109d1565b8114610a1757600080fd5b50565b610a23816109db565b8114610a2e57600080fd5b5056fea2646970667358221220dd450bc36b9d89ec516a912f10e0ff85db30a0ec8f8270b4858436e85e08076264736f6c63430006080033",
  "linkReferences": {},
  "deployedLinkReferences": {}
}