{
  "_format": "hh-sol-artifact-1",
  "contractName": "ExampleContract",
  "sourceName": "src/contracts/examples/ExampleContract.sol",
  "abi": [
    {
      "inputs": [],
      "name": "MAX_SIGNED_INT",
      "outputs": [
        {
          "internalType": "int256",
          "name": "",
          "type": "int256"
        }
      ],
      "stateMutability": "view",
      "type": "function"
    },
    {
      "inputs": [],
      "name": "MIN_SIGNED_INT",
      "outputs": [
        {
          "internalType": "int256",
          "name": "",
          "type": "int256"
        }
      ],
      "stateMutability": "view",
      "type": "function"
    },
    {
      "inputs": [],
      "name": "ROOT",
      "outputs": [
        {
          "internalType": "int256",
          "name": "",
          "type": "int256"
        }
      ],
      "stateMutability": "view",
      "type": "function"
    },
    {
      "inputs": [
        {
          "internalType": "int256",
          "name": "x",
          "type": "int256"
        }
      ],
      "name": "abs",
      "outputs": [
        {
          "internalType": "int256",
          "name": "",
          "type": "int256"
        }
      ],
      "stateMutability": "pure",
      "type": "function"
    },
    {
      "inputs": [
        {
          "internalType": "int256",
          "name": "a",
          "type": "int256"
        },
        {
          "internalType": "int256",
          "name": "b",
          "type": "int256"
        }
      ],
      "name": "add",
      "outputs": [
        {
          "internalType": "int256",
          "name": "",
          "type": "int256"
        }
      ],
      "stateMutability": "view",
      "type": "function"
    },
    {
      "inputs": [
        {
          "internalType": "int224",
          "name": "i",
          "type": "int224"
        }
      ],
      "name": "convertIntToUInt",
      "outputs": [
        {
          "internalType": "uint224",
          "name": "",
          "type": "uint224"
        }
      ],
      "stateMutability": "pure",
      "type": "function"
    },
    {
      "inputs": [
        {
          "internalType": "uint224",
          "name": "u",
          "type": "uint224"
        }
      ],
      "name": "convertUintToInt",
      "outputs": [
        {
          "internalType": "int256",
          "name": "",
          "type": "int256"
        }
      ],
      "stateMutability": "pure",
      "type": "function"
    },
    {
      "inputs": [
        {
          "internalType": "int256",
          "name": "a",
          "type": "int256"
        },
        {
          "internalType": "int256",
          "name": "b",
          "type": "int256"
        }
      ],
      "name": "div",
      "outputs": [
        {
          "internalType": "int256",
          "name": "",
          "type": "int256"
        }
      ],
      "stateMutability": "pure",
      "type": "function"
    },
    {
      "inputs": [
        {
          "internalType": "int256",
          "name": "a",
          "type": "int256"
        },
        {
          "internalType": "int256",
          "name": "b",
          "type": "int256"
        }
      ],
      "name": "mul",
      "outputs": [
        {
          "internalType": "int256",
          "name": "",
          "type": "int256"
        }
      ],
      "stateMutability": "view",
      "type": "function"
    },
    {
      "inputs": [
        {
          "internalType": "int256",
          "name": "a",
          "type": "int256"
        }
      ],
      "name": "square",
      "outputs": [
        {
          "internalType": "int256",
          "name": "",
          "type": "int256"
        }
      ],
      "stateMutability": "view",
      "type": "function"
    },
    {
      "inputs": [
        {
          "internalType": "int256",
          "name": "a",
          "type": "int256"
        },
        {
          "internalType": "int256",
          "name": "b",
          "type": "int256"
        }
      ],
      "name": "sub",
      "outputs": [
        {
          "internalType": "int256",
          "name": "",
          "type": "int256"
        }
      ],
      "stateMutability": "view",
      "type": "function"
    }
  ],
  "bytecode": "0x60806040527f7fffffffffffffffffffffffffffffffffffffffffffffffffffffffffffffff6000557f80000000000000000000000000000000000000000000000000000000000000006001556fb504f333f9de6484597d89b3754abe9f60025534801561006c57600080fd5b50610ba58061007c6000396000f3fe608060405234801561001057600080fd5b50600436106100a95760003560e01c80637525f5a9116100715780637525f5a91461017a57806399e08d3a146101aa578063a5f3c23b146101da578063adefc37b1461020a578063bbe93d911461023a578063e09c7e3c1461026a576100a9565b80631b5ac4b5146100ae5780631b755565146100de5780632797ec45146100fc578063435091381461012c5780635909c12f1461015c575b600080fd5b6100c860048036038101906100c391906107b8565b610288565b6040516100d591906109e4565b60405180910390f35b6100e66102a4565b6040516100f391906109e4565b60405180910390f35b610116600480360381019061011191906107b8565b6102aa565b60405161012391906109e4565b60405180910390f35b610146600480360381019061014191906107e1565b610303565b60405161015391906109e4565b60405180910390f35b61016461035a565b60405161017191906109e4565b60405180910390f35b610194600480360381019061018f919061078f565b610360565b6040516101a19190610abf565b60405180910390f35b6101c460048036038101906101bf919061081d565b6103c9565b6040516101d191906109e4565b60405180910390f35b6101f460048036038101906101ef91906107e1565b6103f9565b60405161020191906109e4565b60405180910390f35b610224600480360381019061021f91906107e1565b6104c4565b60405161023191906109e4565b60405180910390f35b610254600480360381019061024f91906107e1565b61058f565b60405161026191906109e4565b60405180910390f35b610272610681565b60405161027f91906109e4565b60405180910390f35b60008082121561029b578160000361029d565b815b9050919050565b60005481565b60006002546102b883610288565b13156102f9576040517f08c379a00000000000000000000000000000000000000000000000000000000081526004016102f090610a3f565b60405180910390fd5b8182029050919050565b600080821415610348576040517f08c379a000000000000000000000000000000000000000000000000000000000815260040161033f90610a9f565b60405180910390fd5b81838161035157fe5b05905092915050565b60025481565b60006060602067ffffffffffffffff8111801561037c57600080fd5b506040519080825280601f01601f1916602001820160405280156103af5781602001600182028036833780820191505090505b5090508260208201526103c181610687565b915050919050565b60006103f2827bffffffffffffffffffffffffffffffffffffffffffffffffffffffff16610695565b9050919050565b6000808313801561040a5750600082135b1561045b578160005403831315610456576040517f08c379a000000000000000000000000000000000000000000000000000000000815260040161044d90610a1f565b60405180910390fd5b6104b9565b60008312801561046b5750600082125b156104b85781600154038312156104b7576040517f08c379a00000000000000000000000000000000000000000000000000000000081526004016104ae90610a5f565b60405180910390fd5b5b5b818301905092915050565b600080831380156104d55750600082125b15610526578160005401831315610521576040517f08c379a000000000000000000000000000000000000000000000000000000000815260040161051890610a1f565b60405180910390fd5b610584565b6000831280156105365750600082135b15610583578160015401831215610582576040517f08c379a000000000000000000000000000000000000000000000000000000000815260040161057990610a5f565b60405180910390fd5b5b5b818303905092915050565b600060025461059d84610288565b12610605576105ab83610288565b600054816105b557fe5b056105bf83610288565b1315610600576040517f08c379a00000000000000000000000000000000000000000000000000000000081526004016105f7906109ff565b60405180910390fd5b610676565b60025461061183610288565b126106755761061f82610288565b6000548161062957fe5b0561063384610288565b1315610674576040517f08c379a000000000000000000000000000000000000000000000000000000000815260040161066b90610a7f565b60405180910390fd5b5b5b818302905092915050565b60015481565b600060208201519050919050565b60008060007bffffffffffffffffffffffffffffffffffffffffffffffffffffffff90506002600182037bffffffffffffffffffffffffffffffffffffffffffffffffffffffff16816106e457fe5b047bffffffffffffffffffffffffffffffffffffffffffffffffffffffff16847bffffffffffffffffffffffffffffffffffffffffffffffffffffffff161161073a5760008401915081601b0b9250505061074b565b600181850303915081601b0b925050505b919050565b60008135905061075f81610b2a565b92915050565b60008135905061077481610b41565b92915050565b60008135905061078981610b58565b92915050565b6000602082840312156107a157600080fd5b60006107af84828501610750565b91505092915050565b6000602082840312156107ca57600080fd5b60006107d884828501610765565b91505092915050565b600080604083850312156107f457600080fd5b600061080285828601610765565b925050602061081385828601610765565b9150509250929050565b60006020828403121561082f57600080fd5b600061083d8482850161077a565b91505092915050565b61084f81610af8565b82525050565b6000610862601083610ada565b91507f77696c6c206f766572666c6f773a2061000000000000000000000000000000006000830152602082019050919050565b60006108a2601c83610ada565b91507f77696c6c206f766572666c6f77206d6178207369676e656420696e74000000006000830152602082019050919050565b60006108e2600d83610ada565b91507f77696c6c206f766572666c6f77000000000000000000000000000000000000006000830152602082019050919050565b6000610922601c83610ada565b91507f77696c6c206f766572666c6f77206d696e207369676e656420696e74000000006000830152602082019050919050565b6000610962601083610ada565b91507f77696c6c206f766572666c6f773a2062000000000000000000000000000000006000830152602082019050919050565b60006109a2601583610ada565b91507f63616e6e6f7420646976696465206279207a65726f00000000000000000000006000830152602082019050919050565b6109de81610b02565b82525050565b60006020820190506109f96000830184610846565b92915050565b60006020820190508181036000830152610a1881610855565b9050919050565b60006020820190508181036000830152610a3881610895565b9050919050565b60006020820190508181036000830152610a58816108d5565b9050919050565b60006020820190508181036000830152610a7881610915565b9050919050565b60006020820190508181036000830152610a9881610955565b9050919050565b60006020820190508181036000830152610ab881610995565b9050919050565b6000602082019050610ad460008301846109d5565b92915050565b600082825260208201905092915050565b600081601b0b9050919050565b6000819050919050565b60007bffffffffffffffffffffffffffffffffffffffffffffffffffffffff82169050919050565b610b3381610aeb565b8114610b3e57600080fd5b50565b610b4a81610af8565b8114610b5557600080fd5b50565b610b6181610b02565b8114610b6c57600080fd5b5056fea2646970667358221220f3cc12e9ccf55a6c9369303a361b19311ad562b046df06c9dedd3a5483e29c4664736f6c63430006080033",
  "linkReferences": {},
  "deployedLinkReferences": {}
}