{
  "src/contracts/examples/ExampleContract.sol": {
    "ExampleContract": {
      "abi": [
        {
          "inputs": [],
          "name": "MAX_SIGNED_INT",
          "outputs": [
            {
              "internalType": "int256",
              "name": "",
              "type": "int256"
            }
          ],
          "stateMutability": "view",
          "type": "function"
        },
        {
          "inputs": [],
          "name": "MIN_SIGNED_INT",
          "outputs": [
            {
              "internalType": "int256",
              "name": "",
              "type": "int256"
            }
          ],
          "stateMutability": "view",
          "type": "function"
        },
        {
          "inputs": [],
          "name": "ROOT",
          "outputs": [
            {
              "internalType": "int256",
              "name": "",
              "type": "int256"
            }
          ],
          "stateMutability": "view",
          "type": "function"
        },
        {
          "inputs": [
            {
              "internalType": "int256",
              "name": "x",
              "type": "int256"
            }
          ],
          "name": "abs",
          "outputs": [
            {
              "internalType": "int256",
              "name": "",
              "type": "int256"
            }
          ],
          "stateMutability": "pure",
          "type": "function"
        },
        {
          "inputs": [
            {
              "internalType": "int256",
              "name": "a",
              "type": "int256"
            },
            {
              "internalType": "int256",
              "name": "b",
              "type": "int256"
            }
          ],
          "name": "add",
          "outputs": [
            {
              "internalType": "int256",
              "name": "",
              "type": "int256"
            }
          ],
          "stateMutability": "view",
          "type": "function"
        },
        {
          "inputs": [
            {
              "internalType": "int224",
              "name": "i",
              "type": "int224"
            }
          ],
          "name": "convertIntToUInt",
          "outputs": [
            {
              "internalType": "uint224",
              "name": "",
              "type": "uint224"
            }
          ],
          "stateMutability": "pure",
          "type": "function"
        },
        {
          "inputs": [
            {
              "internalType": "uint224",
              "name": "u",
              "type": "uint224"
            }
          ],
          "name": "convertUintToInt",
          "outputs": [
            {
              "internalType": "int256",
              "name": "",
              "type": "int256"
            }
          ],
          "stateMutability": "pure",
          "type": "function"
        },
        {
          "inputs": [
            {
              "internalType": "int256",
              "name": "a",
              "type": "int256"
            },
            {
              "internalType": "int256",
              "name": "b",
              "type": "int256"
            }
          ],
          "name": "div",
          "outputs": [
            {
              "internalType": "int256",
              "name": "",
              "type": "int256"
            }
          ],
          "stateMutability": "pure",
          "type": "function"
        },
        {
          "inputs": [
            {
              "internalType": "int256",
              "name": "a",
              "type": "int256"
            },
            {
              "internalType": "int256",
              "name": "b",
              "type": "int256"
            }
          ],
          "name": "mul",
          "outputs": [
            {
              "internalType": "int256",
              "name": "",
              "type": "int256"
            }
          ],
          "stateMutability": "view",
          "type": "function"
        },
        {
          "inputs": [
            {
              "internalType": "int256",
              "name": "a",
              "type": "int256"
            }
          ],
          "name": "square",
          "outputs": [
            {
              "internalType": "int256",
              "name": "",
              "type": "int256"
            }
          ],
          "stateMutability": "view",
          "type": "function"
        },
        {
          "inputs": [
            {
              "internalType": "int256",
              "name": "a",
              "type": "int256"
            },
            {
              "internalType": "int256",
              "name": "b",
              "type": "int256"
            }
          ],
          "name": "sub",
          "outputs": [
            {
              "internalType": "int256",
              "name": "",
              "type": "int256"
            }
          ],
          "stateMutability": "view",
          "type": "function"
        }
      ],
      "evm": {
        "bytecode": {
          "linkReferences": {},
          "object": "60806040527f7fffffffffffffffffffffffffffffffffffffffffffffffffffffffffffffff6000557f80000000000000000000000000000000000000000000000000000000000000006001556fb504f333f9de6484597d89b3754abe9f60025534801561006c57600080fd5b50610ba58061007c6000396000f3fe608060405234801561001057600080fd5b50600436106100a95760003560e01c80637525f5a9116100715780637525f5a91461017a57806399e08d3a146101aa578063a5f3c23b146101da578063adefc37b1461020a578063bbe93d911461023a578063e09c7e3c1461026a576100a9565b80631b5ac4b5146100ae5780631b755565146100de5780632797ec45146100fc578063435091381461012c5780635909c12f1461015c575b600080fd5b6100c860048036038101906100c391906107b8565b610288565b6040516100d591906109e4565b60405180910390f35b6100e66102a4565b6040516100f391906109e4565b60405180910390f35b610116600480360381019061011191906107b8565b6102aa565b60405161012391906109e4565b60405180910390f35b610146600480360381019061014191906107e1565b610303565b60405161015391906109e4565b60405180910390f35b61016461035a565b60405161017191906109e4565b60405180910390f35b610194600480360381019061018f919061078f565b610360565b6040516101a19190610abf565b60405180910390f35b6101c460048036038101906101bf919061081d565b6103c9565b6040516101d191906109e4565b60405180910390f35b6101f460048036038101906101ef91906107e1565b6103f9565b60405161020191906109e4565b60405180910390f35b610224600480360381019061021f91906107e1565b6104c4565b60405161023191906109e4565b60405180910390f35b610254600480360381019061024f91906107e1565b61058f565b60405161026191906109e4565b60405180910390f35b610272610681565b60405161027f91906109e4565b60405180910390f35b60008082121561029b578160000361029d565b815b9050919050565b60005481565b60006002546102b883610288565b13156102f9576040517f08c379a00000000000000000000000000000000000000000000000000000000081526004016102f090610a3f565b60405180910390fd5b8182029050919050565b600080821415610348576040517f08c379a000000000000000000000000000000000000000000000000000000000815260040161033f90610a9f565b60405180910390fd5b81838161035157fe5b05905092915050565b60025481565b60006060602067ffffffffffffffff8111801561037c57600080fd5b506040519080825280601f01601f1916602001820160405280156103af5781602001600182028036833780820191505090505b5090508260208201526103c181610687565b915050919050565b60006103f2827bffffffffffffffffffffffffffffffffffffffffffffffffffffffff16610695565b9050919050565b6000808313801561040a5750600082135b1561045b578160005403831315610456576040517f08c379a000000000000000000000000000000000000000000000000000000000815260040161044d90610a1f565b60405180910390fd5b6104b9565b60008312801561046b5750600082125b156104b85781600154038312156104b7576040517f08c379a00000000000000000000000000000000000000000000000000000000081526004016104ae90610a5f565b60405180910390fd5b5b5b818301905092915050565b600080831380156104d55750600082125b15610526578160005401831315610521576040517f08c379a000000000000000000000000000000000000000000000000000000000815260040161051890610a1f565b60405180910390fd5b610584565b6000831280156105365750600082135b15610583578160015401831215610582576040517f08c379a000000000000000000000000000000000000000000000000000000000815260040161057990610a5f565b60405180910390fd5b5b5b818303905092915050565b600060025461059d84610288565b12610605576105ab83610288565b600054816105b557fe5b056105bf83610288565b1315610600576040517f08c379a00000000000000000000000000000000000000000000000000000000081526004016105f7906109ff565b60405180910390fd5b610676565b60025461061183610288565b126106755761061f82610288565b6000548161062957fe5b0561063384610288565b1315610674576040517f08c379a000000000000000000000000000000000000000000000000000000000815260040161066b90610a7f565b60405180910390fd5b5b5b818302905092915050565b60015481565b600060208201519050919050565b60008060007bffffffffffffffffffffffffffffffffffffffffffffffffffffffff90506002600182037bffffffffffffffffffffffffffffffffffffffffffffffffffffffff16816106e457fe5b047bffffffffffffffffffffffffffffffffffffffffffffffffffffffff16847bffffffffffffffffffffffffffffffffffffffffffffffffffffffff161161073a5760008401915081601b0b9250505061074b565b600181850303915081601b0b925050505b919050565b60008135905061075f81610b2a565b92915050565b60008135905061077481610b41565b92915050565b60008135905061078981610b58565b92915050565b6000602082840312156107a157600080fd5b60006107af84828501610750565b91505092915050565b6000602082840312156107ca57600080fd5b60006107d884828501610765565b91505092915050565b600080604083850312156107f457600080fd5b600061080285828601610765565b925050602061081385828601610765565b9150509250929050565b60006020828403121561082f57600080fd5b600061083d8482850161077a565b91505092915050565b61084f81610af8565b82525050565b6000610862601083610ada565b91507f77696c6c206f766572666c6f773a2061000000000000000000000000000000006000830152602082019050919050565b60006108a2601c83610ada565b91507f77696c6c206f766572666c6f77206d6178207369676e656420696e74000000006000830152602082019050919050565b60006108e2600d83610ada565b91507f77696c6c206f766572666c6f77000000000000000000000000000000000000006000830152602082019050919050565b6000610922601c83610ada565b91507f77696c6c206f766572666c6f77206d696e207369676e656420696e74000000006000830152602082019050919050565b6000610962601083610ada565b91507f77696c6c206f766572666c6f773a2062000000000000000000000000000000006000830152602082019050919050565b60006109a2601583610ada565b91507f63616e6e6f7420646976696465206279207a65726f00000000000000000000006000830152602082019050919050565b6109de81610b02565b82525050565b60006020820190506109f96000830184610846565b92915050565b60006020820190508181036000830152610a1881610855565b9050919050565b60006020820190508181036000830152610a3881610895565b9050919050565b60006020820190508181036000830152610a58816108d5565b9050919050565b60006020820190508181036000830152610a7881610915565b9050919050565b60006020820190508181036000830152610a9881610955565b9050919050565b60006020820190508181036000830152610ab881610995565b9050919050565b6000602082019050610ad460008301846109d5565b92915050565b600082825260208201905092915050565b600081601b0b9050919050565b6000819050919050565b60007bffffffffffffffffffffffffffffffffffffffffffffffffffffffff82169050919050565b610b3381610aeb565b8114610b3e57600080fd5b50565b610b4a81610af8565b8114610b5557600080fd5b50565b610b6181610b02565b8114610b6c57600080fd5b5056fea26469706673582212203ea30dce10c0144e56fbbd75ed01a0d37228c0fad86c4517e1651228dff8081864736f6c63430006080033",
          "opcodes": "PUSH1 0x80 PUSH1 0x40 MSTORE PUSH32 0x7FFFFFFFFFFFFFFFFFFFFFFFFFFFFFFFFFFFFFFFFFFFFFFFFFFFFFFFFFFFFFFF PUSH1 0x0 SSTORE PUSH32 0x8000000000000000000000000000000000000000000000000000000000000000 PUSH1 0x1 SSTORE PUSH16 0xB504F333F9DE6484597D89B3754ABE9F PUSH1 0x2 SSTORE CALLVALUE DUP1 ISZERO PUSH2 0x6C JUMPI PUSH1 0x0 DUP1 REVERT JUMPDEST POP PUSH2 0xBA5 DUP1 PUSH2 0x7C PUSH1 0x0 CODECOPY PUSH1 0x0 RETURN INVALID PUSH1 0x80 PUSH1 0x40 MSTORE CALLVALUE DUP1 ISZERO PUSH2 0x10 JUMPI PUSH1 0x0 DUP1 REVERT JUMPDEST POP PUSH1 0x4 CALLDATASIZE LT PUSH2 0xA9 JUMPI PUSH1 0x0 CALLDATALOAD PUSH1 0xE0 SHR DUP1 PUSH4 0x7525F5A9 GT PUSH2 0x71 JUMPI DUP1 PUSH4 0x7525F5A9 EQ PUSH2 0x17A JUMPI DUP1 PUSH4 0x99E08D3A EQ PUSH2 0x1AA JUMPI DUP1 PUSH4 0xA5F3C23B EQ PUSH2 0x1DA JUMPI DUP1 PUSH4 0xADEFC37B EQ PUSH2 0x20A JUMPI DUP1 PUSH4 0xBBE93D91 EQ PUSH2 0x23A JUMPI DUP1 PUSH4 0xE09C7E3C EQ PUSH2 0x26A JUMPI PUSH2 0xA9 JUMP JUMPDEST DUP1 PUSH4 0x1B5AC4B5 EQ PUSH2 0xAE JUMPI DUP1 PUSH4 0x1B755565 EQ PUSH2 0xDE JUMPI DUP1 PUSH4 0x2797EC45 EQ PUSH2 0xFC JUMPI DUP1 PUSH4 0x43509138 EQ PUSH2 0x12C JUMPI DUP1 PUSH4 0x5909C12F EQ PUSH2 0x15C JUMPI JUMPDEST PUSH1 0x0 DUP1 REVERT JUMPDEST PUSH2 0xC8 PUSH1 0x4 DUP1 CALLDATASIZE SUB DUP2 ADD SWAP1 PUSH2 0xC3 SWAP2 SWAP1 PUSH2 0x7B8 JUMP JUMPDEST PUSH2 0x288 JUMP JUMPDEST PUSH1 0x40 MLOAD PUSH2 0xD5 SWAP2 SWAP1 PUSH2 0x9E4 JUMP JUMPDEST PUSH1 0x40 MLOAD DUP1 SWAP2 SUB SWAP1 RETURN JUMPDEST PUSH2 0xE6 PUSH2 0x2A4 JUMP JUMPDEST PUSH1 0x40 MLOAD PUSH2 0xF3 SWAP2 SWAP1 PUSH2 0x9E4 JUMP JUMPDEST PUSH1 0x40 MLOAD DUP1 SWAP2 SUB SWAP1 RETURN JUMPDEST PUSH2 0x116 PUSH1 0x4 DUP1 CALLDATASIZE SUB DUP2 ADD SWAP1 PUSH2 0x111 SWAP2 SWAP1 PUSH2 0x7B8 JUMP JUMPDEST PUSH2 0x2AA JUMP JUMPDEST PUSH1 0x40 MLOAD PUSH2 0x123 SWAP2 SWAP1 PUSH2 0x9E4 JUMP JUMPDEST PUSH1 0x40 MLOAD DUP1 SWAP2 SUB SWAP1 RETURN JUMPDEST PUSH2 0x146 PUSH1 0x4 DUP1 CALLDATASIZE SUB DUP2 ADD SWAP1 PUSH2 0x141 SWAP2 SWAP1 PUSH2 0x7E1 JUMP JUMPDEST PUSH2 0x303 JUMP JUMPDEST PUSH1 0x40 MLOAD PUSH2 0x153 SWAP2 SWAP1 PUSH2 0x9E4 JUMP JUMPDEST PUSH1 0x40 MLOAD DUP1 SWAP2 SUB SWAP1 RETURN JUMPDEST PUSH2 0x164 PUSH2 0x35A JUMP JUMPDEST PUSH1 0x40 MLOAD PUSH2 0x171 SWAP2 SWAP1 PUSH2 0x9E4 JUMP JUMPDEST PUSH1 0x40 MLOAD DUP1 SWAP2 SUB SWAP1 RETURN JUMPDEST PUSH2 0x194 PUSH1 0x4 DUP1 CALLDATASIZE SUB DUP2 ADD SWAP1 PUSH2 0x18F SWAP2 SWAP1 PUSH2 0x78F JUMP JUMPDEST PUSH2 0x360 JUMP JUMPDEST PUSH1 0x40 MLOAD PUSH2 0x1A1 SWAP2 SWAP1 PUSH2 0xABF JUMP JUMPDEST PUSH1 0x40 MLOAD DUP1 SWAP2 SUB SWAP1 RETURN JUMPDEST PUSH2 0x1C4 PUSH1 0x4 DUP1 CALLDATASIZE SUB DUP2 ADD SWAP1 PUSH2 0x1BF SWAP2 SWAP1 PUSH2 0x81D JUMP JUMPDEST PUSH2 0x3C9 JUMP JUMPDEST PUSH1 0x40 MLOAD PUSH2 0x1D1 SWAP2 SWAP1 PUSH2 0x9E4 JUMP JUMPDEST PUSH1 0x40 MLOAD DUP1 SWAP2 SUB SWAP1 RETURN JUMPDEST PUSH2 0x1F4 PUSH1 0x4 DUP1 CALLDATASIZE SUB DUP2 ADD SWAP1 PUSH2 0x1EF SWAP2 SWAP1 PUSH2 0x7E1 JUMP JUMPDEST PUSH2 0x3F9 JUMP JUMPDEST PUSH1 0x40 MLOAD PUSH2 0x201 SWAP2 SWAP1 PUSH2 0x9E4 JUMP JUMPDEST PUSH1 0x40 MLOAD DUP1 SWAP2 SUB SWAP1 RETURN JUMPDEST PUSH2 0x224 PUSH1 0x4 DUP1 CALLDATASIZE SUB DUP2 ADD SWAP1 PUSH2 0x21F SWAP2 SWAP1 PUSH2 0x7E1 JUMP JUMPDEST PUSH2 0x4C4 JUMP JUMPDEST PUSH1 0x40 MLOAD PUSH2 0x231 SWAP2 SWAP1 PUSH2 0x9E4 JUMP JUMPDEST PUSH1 0x40 MLOAD DUP1 SWAP2 SUB SWAP1 RETURN JUMPDEST PUSH2 0x254 PUSH1 0x4 DUP1 CALLDATASIZE SUB DUP2 ADD SWAP1 PUSH2 0x24F SWAP2 SWAP1 PUSH2 0x7E1 JUMP JUMPDEST PUSH2 0x58F JUMP JUMPDEST PUSH1 0x40 MLOAD PUSH2 0x261 SWAP2 SWAP1 PUSH2 0x9E4 JUMP JUMPDEST PUSH1 0x40 MLOAD DUP1 SWAP2 SUB SWAP1 RETURN JUMPDEST PUSH2 0x272 PUSH2 0x681 JUMP JUMPDEST PUSH1 0x40 MLOAD PUSH2 0x27F SWAP2 SWAP1 PUSH2 0x9E4 JUMP JUMPDEST PUSH1 0x40 MLOAD DUP1 SWAP2 SUB SWAP1 RETURN JUMPDEST PUSH1 0x0 DUP1 DUP3 SLT ISZERO PUSH2 0x29B JUMPI DUP2 PUSH1 0x0 SUB PUSH2 0x29D JUMP JUMPDEST DUP2 JUMPDEST SWAP1 POP SWAP2 SWAP1 POP JUMP JUMPDEST PUSH1 0x0 SLOAD DUP2 JUMP JUMPDEST PUSH1 0x0 PUSH1 0x2 SLOAD PUSH2 0x2B8 DUP4 PUSH2 0x288 JUMP JUMPDEST SGT ISZERO PUSH2 0x2F9 JUMPI PUSH1 0x40 MLOAD PUSH32 0x8C379A000000000000000000000000000000000000000000000000000000000 DUP2 MSTORE PUSH1 0x4 ADD PUSH2 0x2F0 SWAP1 PUSH2 0xA3F JUMP JUMPDEST PUSH1 0x40 MLOAD DUP1 SWAP2 SUB SWAP1 REVERT JUMPDEST DUP2 DUP3 MUL SWAP1 POP SWAP2 SWAP1 POP JUMP JUMPDEST PUSH1 0x0 DUP1 DUP3 EQ ISZERO PUSH2 0x348 JUMPI PUSH1 0x40 MLOAD PUSH32 0x8C379A000000000000000000000000000000000000000000000000000000000 DUP2 MSTORE PUSH1 0x4 ADD PUSH2 0x33F SWAP1 PUSH2 0xA9F JUMP JUMPDEST PUSH1 0x40 MLOAD DUP1 SWAP2 SUB SWAP1 REVERT JUMPDEST DUP2 DUP4 DUP2 PUSH2 0x351 JUMPI INVALID JUMPDEST SDIV SWAP1 POP SWAP3 SWAP2 POP POP JUMP JUMPDEST PUSH1 0x2 SLOAD DUP2 JUMP JUMPDEST PUSH1 0x0 PUSH1 0x60 PUSH1 0x20 PUSH8 0xFFFFFFFFFFFFFFFF DUP2 GT DUP1 ISZERO PUSH2 0x37C JUMPI PUSH1 0x0 DUP1 REVERT JUMPDEST POP PUSH1 0x40 MLOAD SWAP1 DUP1 DUP3 MSTORE DUP1 PUSH1 0x1F ADD PUSH1 0x1F NOT AND PUSH1 0x20 ADD DUP3 ADD PUSH1 0x40 MSTORE DUP1 ISZERO PUSH2 0x3AF JUMPI DUP2 PUSH1 0x20 ADD PUSH1 0x1 DUP3 MUL DUP1 CALLDATASIZE DUP4 CALLDATACOPY DUP1 DUP3 ADD SWAP2 POP POP SWAP1 POP JUMPDEST POP SWAP1 POP DUP3 PUSH1 0x20 DUP3 ADD MSTORE PUSH2 0x3C1 DUP2 PUSH2 0x687 JUMP JUMPDEST SWAP2 POP POP SWAP2 SWAP1 POP JUMP JUMPDEST PUSH1 0x0 PUSH2 0x3F2 DUP3 PUSH28 0xFFFFFFFFFFFFFFFFFFFFFFFFFFFFFFFFFFFFFFFFFFFFFFFFFFFFFFFF AND PUSH2 0x695 JUMP JUMPDEST SWAP1 POP SWAP2 SWAP1 POP JUMP JUMPDEST PUSH1 0x0 DUP1 DUP4 SGT DUP1 ISZERO PUSH2 0x40A JUMPI POP PUSH1 0x0 DUP3 SGT JUMPDEST ISZERO PUSH2 0x45B JUMPI DUP2 PUSH1 0x0 SLOAD SUB DUP4 SGT ISZERO PUSH2 0x456 JUMPI PUSH1 0x40 MLOAD PUSH32 0x8C379A000000000000000000000000000000000000000000000000000000000 DUP2 MSTORE PUSH1 0x4 ADD PUSH2 0x44D SWAP1 PUSH2 0xA1F JUMP JUMPDEST PUSH1 0x40 MLOAD DUP1 SWAP2 SUB SWAP1 REVERT JUMPDEST PUSH2 0x4B9 JUMP JUMPDEST PUSH1 0x0 DUP4 SLT DUP1 ISZERO PUSH2 0x46B JUMPI POP PUSH1 0x0 DUP3 SLT JUMPDEST ISZERO PUSH2 0x4B8 JUMPI DUP2 PUSH1 0x1 SLOAD SUB DUP4 SLT ISZERO PUSH2 0x4B7 JUMPI PUSH1 0x40 MLOAD PUSH32 0x8C379A000000000000000000000000000000000000000000000000000000000 DUP2 MSTORE PUSH1 0x4 ADD PUSH2 0x4AE SWAP1 PUSH2 0xA5F JUMP JUMPDEST PUSH1 0x40 MLOAD DUP1 SWAP2 SUB SWAP1 REVERT JUMPDEST JUMPDEST JUMPDEST DUP2 DUP4 ADD SWAP1 POP SWAP3 SWAP2 POP POP JUMP JUMPDEST PUSH1 0x0 DUP1 DUP4 SGT DUP1 ISZERO PUSH2 0x4D5 JUMPI POP PUSH1 0x0 DUP3 SLT JUMPDEST ISZERO PUSH2 0x526 JUMPI DUP2 PUSH1 0x0 SLOAD ADD DUP4 SGT ISZERO PUSH2 0x521 JUMPI PUSH1 0x40 MLOAD PUSH32 0x8C379A000000000000000000000000000000000000000000000000000000000 DUP2 MSTORE PUSH1 0x4 ADD PUSH2 0x518 SWAP1 PUSH2 0xA1F JUMP JUMPDEST PUSH1 0x40 MLOAD DUP1 SWAP2 SUB SWAP1 REVERT JUMPDEST PUSH2 0x584 JUMP JUMPDEST PUSH1 0x0 DUP4 SLT DUP1 ISZERO PUSH2 0x536 JUMPI POP PUSH1 0x0 DUP3 SGT JUMPDEST ISZERO PUSH2 0x583 JUMPI DUP2 PUSH1 0x1 SLOAD ADD DUP4 SLT ISZERO PUSH2 0x582 JUMPI PUSH1 0x40 MLOAD PUSH32 0x8C379A000000000000000000000000000000000000000000000000000000000 DUP2 MSTORE PUSH1 0x4 ADD PUSH2 0x579 SWAP1 PUSH2 0xA5F JUMP JUMPDEST PUSH1 0x40 MLOAD DUP1 SWAP2 SUB SWAP1 REVERT JUMPDEST JUMPDEST JUMPDEST DUP2 DUP4 SUB SWAP1 POP SWAP3 SWAP2 POP POP JUMP JUMPDEST PUSH1 0x0 PUSH1 0x2 SLOAD PUSH2 0x59D DUP5 PUSH2 0x288 JUMP JUMPDEST SLT PUSH2 0x605 JUMPI PUSH2 0x5AB DUP4 PUSH2 0x288 JUMP JUMPDEST PUSH1 0x0 SLOAD DUP2 PUSH2 0x5B5 JUMPI INVALID JUMPDEST SDIV PUSH2 0x5BF DUP4 PUSH2 0x288 JUMP JUMPDEST SGT ISZERO PUSH2 0x600 JUMPI PUSH1 0x40 MLOAD PUSH32 0x8C379A000000000000000000000000000000000000000000000000000000000 DUP2 MSTORE PUSH1 0x4 ADD PUSH2 0x5F7 SWAP1 PUSH2 0x9FF JUMP JUMPDEST PUSH1 0x40 MLOAD DUP1 SWAP2 SUB SWAP1 REVERT JUMPDEST PUSH2 0x676 JUMP JUMPDEST PUSH1 0x2 SLOAD PUSH2 0x611 DUP4 PUSH2 0x288 JUMP JUMPDEST SLT PUSH2 0x675 JUMPI PUSH2 0x61F DUP3 PUSH2 0x288 JUMP JUMPDEST PUSH1 0x0 SLOAD DUP2 PUSH2 0x629 JUMPI INVALID JUMPDEST SDIV PUSH2 0x633 DUP5 PUSH2 0x288 JUMP JUMPDEST SGT ISZERO PUSH2 0x674 JUMPI PUSH1 0x40 MLOAD PUSH32 0x8C379A000000000000000000000000000000000000000000000000000000000 DUP2 MSTORE PUSH1 0x4 ADD PUSH2 0x66B SWAP1 PUSH2 0xA7F JUMP JUMPDEST PUSH1 0x40 MLOAD DUP1 SWAP2 SUB SWAP1 REVERT JUMPDEST JUMPDEST JUMPDEST DUP2 DUP4 MUL SWAP1 POP SWAP3 SWAP2 POP POP JUMP JUMPDEST PUSH1 0x1 SLOAD DUP2 JUMP JUMPDEST PUSH1 0x0 PUSH1 0x20 DUP3 ADD MLOAD SWAP1 POP SWAP2 SWAP1 POP JUMP JUMPDEST PUSH1 0x0 DUP1 PUSH1 0x0 PUSH28 0xFFFFFFFFFFFFFFFFFFFFFFFFFFFFFFFFFFFFFFFFFFFFFFFFFFFFFFFF SWAP1 POP PUSH1 0x2 PUSH1 0x1 DUP3 SUB PUSH28 0xFFFFFFFFFFFFFFFFFFFFFFFFFFFFFFFFFFFFFFFFFFFFFFFFFFFFFFFF AND DUP2 PUSH2 0x6E4 JUMPI INVALID JUMPDEST DIV PUSH28 0xFFFFFFFFFFFFFFFFFFFFFFFFFFFFFFFFFFFFFFFFFFFFFFFFFFFFFFFF AND DUP5 PUSH28 0xFFFFFFFFFFFFFFFFFFFFFFFFFFFFFFFFFFFFFFFFFFFFFFFFFFFFFFFF AND GT PUSH2 0x73A JUMPI PUSH1 0x0 DUP5 ADD SWAP2 POP DUP2 PUSH1 0x1B SIGNEXTEND SWAP3 POP POP POP PUSH2 0x74B JUMP JUMPDEST PUSH1 0x1 DUP2 DUP6 SUB SUB SWAP2 POP DUP2 PUSH1 0x1B SIGNEXTEND SWAP3 POP POP POP JUMPDEST SWAP2 SWAP1 POP JUMP JUMPDEST PUSH1 0x0 DUP2 CALLDATALOAD SWAP1 POP PUSH2 0x75F DUP2 PUSH2 0xB2A JUMP JUMPDEST SWAP3 SWAP2 POP POP JUMP JUMPDEST PUSH1 0x0 DUP2 CALLDATALOAD SWAP1 POP PUSH2 0x774 DUP2 PUSH2 0xB41 JUMP JUMPDEST SWAP3 SWAP2 POP POP JUMP JUMPDEST PUSH1 0x0 DUP2 CALLDATALOAD SWAP1 POP PUSH2 0x789 DUP2 PUSH2 0xB58 JUMP JUMPDEST SWAP3 SWAP2 POP POP JUMP JUMPDEST PUSH1 0x0 PUSH1 0x20 DUP3 DUP5 SUB SLT ISZERO PUSH2 0x7A1 JUMPI PUSH1 0x0 DUP1 REVERT JUMPDEST PUSH1 0x0 PUSH2 0x7AF DUP5 DUP3 DUP6 ADD PUSH2 0x750 JUMP JUMPDEST SWAP2 POP POP SWAP3 SWAP2 POP POP JUMP JUMPDEST PUSH1 0x0 PUSH1 0x20 DUP3 DUP5 SUB SLT ISZERO PUSH2 0x7CA JUMPI PUSH1 0x0 DUP1 REVERT JUMPDEST PUSH1 0x0 PUSH2 0x7D8 DUP5 DUP3 DUP6 ADD PUSH2 0x765 JUMP JUMPDEST SWAP2 POP POP SWAP3 SWAP2 POP POP JUMP JUMPDEST PUSH1 0x0 DUP1 PUSH1 0x40 DUP4 DUP6 SUB SLT ISZERO PUSH2 0x7F4 JUMPI PUSH1 0x0 DUP1 REVERT JUMPDEST PUSH1 0x0 PUSH2 0x802 DUP6 DUP3 DUP7 ADD PUSH2 0x765 JUMP JUMPDEST SWAP3 POP POP PUSH1 0x20 PUSH2 0x813 DUP6 DUP3 DUP7 ADD PUSH2 0x765 JUMP JUMPDEST SWAP2 POP POP SWAP3 POP SWAP3 SWAP1 POP JUMP JUMPDEST PUSH1 0x0 PUSH1 0x20 DUP3 DUP5 SUB SLT ISZERO PUSH2 0x82F JUMPI PUSH1 0x0 DUP1 REVERT JUMPDEST PUSH1 0x0 PUSH2 0x83D DUP5 DUP3 DUP6 ADD PUSH2 0x77A JUMP JUMPDEST SWAP2 POP POP SWAP3 SWAP2 POP POP JUMP JUMPDEST PUSH2 0x84F DUP2 PUSH2 0xAF8 JUMP JUMPDEST DUP3 MSTORE POP POP JUMP JUMPDEST PUSH1 0x0 PUSH2 0x862 PUSH1 0x10 DUP4 PUSH2 0xADA JUMP JUMPDEST SWAP2 POP PUSH32 0x77696C6C206F766572666C6F773A206100000000000000000000000000000000 PUSH1 0x0 DUP4 ADD MSTORE PUSH1 0x20 DUP3 ADD SWAP1 POP SWAP2 SWAP1 POP JUMP JUMPDEST PUSH1 0x0 PUSH2 0x8A2 PUSH1 0x1C DUP4 PUSH2 0xADA JUMP JUMPDEST SWAP2 POP PUSH32 0x77696C6C206F766572666C6F77206D6178207369676E656420696E7400000000 PUSH1 0x0 DUP4 ADD MSTORE PUSH1 0x20 DUP3 ADD SWAP1 POP SWAP2 SWAP1 POP JUMP JUMPDEST PUSH1 0x0 PUSH2 0x8E2 PUSH1 0xD DUP4 PUSH2 0xADA JUMP JUMPDEST SWAP2 POP PUSH32 0x77696C6C206F766572666C6F7700000000000000000000000000000000000000 PUSH1 0x0 DUP4 ADD MSTORE PUSH1 0x20 DUP3 ADD SWAP1 POP SWAP2 SWAP1 POP JUMP JUMPDEST PUSH1 0x0 PUSH2 0x922 PUSH1 0x1C DUP4 PUSH2 0xADA JUMP JUMPDEST SWAP2 POP PUSH32 0x77696C6C206F766572666C6F77206D696E207369676E656420696E7400000000 PUSH1 0x0 DUP4 ADD MSTORE PUSH1 0x20 DUP3 ADD SWAP1 POP SWAP2 SWAP1 POP JUMP JUMPDEST PUSH1 0x0 PUSH2 0x962 PUSH1 0x10 DUP4 PUSH2 0xADA JUMP JUMPDEST SWAP2 POP PUSH32 0x77696C6C206F766572666C6F773A206200000000000000000000000000000000 PUSH1 0x0 DUP4 ADD MSTORE PUSH1 0x20 DUP3 ADD SWAP1 POP SWAP2 SWAP1 POP JUMP JUMPDEST PUSH1 0x0 PUSH2 0x9A2 PUSH1 0x15 DUP4 PUSH2 0xADA JUMP JUMPDEST SWAP2 POP PUSH32 0x63616E6E6F7420646976696465206279207A65726F0000000000000000000000 PUSH1 0x0 DUP4 ADD MSTORE PUSH1 0x20 DUP3 ADD SWAP1 POP SWAP2 SWAP1 POP JUMP JUMPDEST PUSH2 0x9DE DUP2 PUSH2 0xB02 JUMP JUMPDEST DUP3 MSTORE POP POP JUMP JUMPDEST PUSH1 0x0 PUSH1 0x20 DUP3 ADD SWAP1 POP PUSH2 0x9F9 PUSH1 0x0 DUP4 ADD DUP5 PUSH2 0x846 JUMP JUMPDEST SWAP3 SWAP2 POP POP JUMP JUMPDEST PUSH1 0x0 PUSH1 0x20 DUP3 ADD SWAP1 POP DUP2 DUP2 SUB PUSH1 0x0 DUP4 ADD MSTORE PUSH2 0xA18 DUP2 PUSH2 0x855 JUMP JUMPDEST SWAP1 POP SWAP2 SWAP1 POP JUMP JUMPDEST PUSH1 0x0 PUSH1 0x20 DUP3 ADD SWAP1 POP DUP2 DUP2 SUB PUSH1 0x0 DUP4 ADD MSTORE PUSH2 0xA38 DUP2 PUSH2 0x895 JUMP JUMPDEST SWAP1 POP SWAP2 SWAP1 POP JUMP JUMPDEST PUSH1 0x0 PUSH1 0x20 DUP3 ADD SWAP1 POP DUP2 DUP2 SUB PUSH1 0x0 DUP4 ADD MSTORE PUSH2 0xA58 DUP2 PUSH2 0x8D5 JUMP JUMPDEST SWAP1 POP SWAP2 SWAP1 POP JUMP JUMPDEST PUSH1 0x0 PUSH1 0x20 DUP3 ADD SWAP1 POP DUP2 DUP2 SUB PUSH1 0x0 DUP4 ADD MSTORE PUSH2 0xA78 DUP2 PUSH2 0x915 JUMP JUMPDEST SWAP1 POP SWAP2 SWAP1 POP JUMP JUMPDEST PUSH1 0x0 PUSH1 0x20 DUP3 ADD SWAP1 POP DUP2 DUP2 SUB PUSH1 0x0 DUP4 ADD MSTORE PUSH2 0xA98 DUP2 PUSH2 0x955 JUMP JUMPDEST SWAP1 POP SWAP2 SWAP1 POP JUMP JUMPDEST PUSH1 0x0 PUSH1 0x20 DUP3 ADD SWAP1 POP DUP2 DUP2 SUB PUSH1 0x0 DUP4 ADD MSTORE PUSH2 0xAB8 DUP2 PUSH2 0x995 JUMP JUMPDEST SWAP1 POP SWAP2 SWAP1 POP JUMP JUMPDEST PUSH1 0x0 PUSH1 0x20 DUP3 ADD SWAP1 POP PUSH2 0xAD4 PUSH1 0x0 DUP4 ADD DUP5 PUSH2 0x9D5 JUMP JUMPDEST SWAP3 SWAP2 POP POP JUMP JUMPDEST PUSH1 0x0 DUP3 DUP3 MSTORE PUSH1 0x20 DUP3 ADD SWAP1 POP SWAP3 SWAP2 POP POP JUMP JUMPDEST PUSH1 0x0 DUP2 PUSH1 0x1B SIGNEXTEND SWAP1 POP SWAP2 SWAP1 POP JUMP JUMPDEST PUSH1 0x0 DUP2 SWAP1 POP SWAP2 SWAP1 POP JUMP JUMPDEST PUSH1 0x0 PUSH28 0xFFFFFFFFFFFFFFFFFFFFFFFFFFFFFFFFFFFFFFFFFFFFFFFFFFFFFFFF DUP3 AND SWAP1 POP SWAP2 SWAP1 POP JUMP JUMPDEST PUSH2 0xB33 DUP2 PUSH2 0xAEB JUMP JUMPDEST DUP2 EQ PUSH2 0xB3E JUMPI PUSH1 0x0 DUP1 REVERT JUMPDEST POP JUMP JUMPDEST PUSH2 0xB4A DUP2 PUSH2 0xAF8 JUMP JUMPDEST DUP2 EQ PUSH2 0xB55 JUMPI PUSH1 0x0 DUP1 REVERT JUMPDEST POP JUMP JUMPDEST PUSH2 0xB61 DUP2 PUSH2 0xB02 JUMP JUMPDEST DUP2 EQ PUSH2 0xB6C JUMPI PUSH1 0x0 DUP1 REVERT JUMPDEST POP JUMP INVALID LOG2 PUSH5 0x6970667358 0x22 SLT KECCAK256 RETURNDATACOPY LOG3 0xD 0xCE LT 0xC0 EQ 0x4E JUMP 0xFB 0xBD PUSH22 0xED01A0D37228C0FAD86C4517E1651228DFF808186473 PUSH16 0x6C634300060800330000000000000000 "
        },
        "methodIdentifiers": {
          "MAX_SIGNED_INT()": "1b755565",
          "MIN_SIGNED_INT()": "e09c7e3c",
          "ROOT()": "5909c12f",
          "abs(int256)": "1b5ac4b5",
          "add(int256,int256)": "a5f3c23b",
          "convertIntToUInt(int224)": "7525f5a9",
          "convertUintToInt(uint224)": "99e08d3a",
          "div(int256,int256)": "43509138",
          "mul(int256,int256)": "bbe93d91",
          "square(int256)": "2797ec45",
          "sub(int256,int256)": "adefc37b"
        }
      }
    }
  }
}