{
  "src/contracts/examples/ExampleContract.sol": {
    "ExampleContract": {
      "abi": [
        {
          "inputs": [],
          "name": "MAX_SIGNED_INT",
          "outputs": [
            {
              "internalType": "int256",
              "name": "",
              "type": "int256"
            }
          ],
          "stateMutability": "view",
          "type": "function"
        },
        {
          "inputs": [],
          "name": "MIN_SIGNED_INT",
          "outputs": [
            {
              "internalType": "int256",
              "name": "",
              "type": "int256"
            }
          ],
          "stateMutability": "view",
          "type": "function"
        },
        {
          "inputs": [],
          "name": "ROOT",
          "outputs": [
            {
              "internalType": "int256",
              "name": "",
              "type": "int256"
            }
          ],
          "stateMutability": "view",
          "type": "function"
        },
        {
          "inputs": [
            {
              "internalType": "int256",
              "name": "x",
              "type": "int256"
            }
          ],
          "name": "abs",
          "outputs": [
            {
              "internalType": "int256",
              "name": "",
              "type": "int256"
            }
          ],
          "stateMutability": "pure",
          "type": "function"
        },
        {
          "inputs": [
            {
              "internalType": "int256",
              "name": "a",
              "type": "int256"
            },
            {
              "internalType": "int256",
              "name": "b",
              "type": "int256"
            }
          ],
          "name": "add",
          "outputs": [
            {
              "internalType": "int256",
              "name": "",
              "type": "int256"
            }
          ],
          "stateMutability": "view",
          "type": "function"
        },
        {
          "inputs": [
            {
              "internalType": "uint224",
              "name": "u",
              "type": "uint224"
            }
          ],
          "name": "convertUintToInt",
          "outputs": [
            {
              "internalType": "int256",
              "name": "",
              "type": "int256"
            }
          ],
          "stateMutability": "pure",
          "type": "function"
        },
        {
          "inputs": [
            {
              "internalType": "int256",
              "name": "a",
              "type": "int256"
            },
            {
              "internalType": "int256",
              "name": "b",
              "type": "int256"
            }
          ],
          "name": "div",
          "outputs": [
            {
              "internalType": "int256",
              "name": "",
              "type": "int256"
            }
          ],
          "stateMutability": "pure",
          "type": "function"
        },
        {
          "inputs": [
            {
              "internalType": "int256",
              "name": "a",
              "type": "int256"
            },
            {
              "internalType": "int256",
              "name": "b",
              "type": "int256"
            }
          ],
          "name": "mul",
          "outputs": [
            {
              "internalType": "int256",
              "name": "",
              "type": "int256"
            }
          ],
          "stateMutability": "view",
          "type": "function"
        },
        {
          "inputs": [
            {
              "internalType": "int256",
              "name": "a",
              "type": "int256"
            }
          ],
          "name": "square",
          "outputs": [
            {
              "internalType": "int256",
              "name": "",
              "type": "int256"
            }
          ],
          "stateMutability": "view",
          "type": "function"
        },
        {
          "inputs": [
            {
              "internalType": "int256",
              "name": "a",
              "type": "int256"
            },
            {
              "internalType": "int256",
              "name": "b",
              "type": "int256"
            }
          ],
          "name": "sub",
          "outputs": [
            {
              "internalType": "int256",
              "name": "",
              "type": "int256"
            }
          ],
          "stateMutability": "view",
          "type": "function"
        }
      ],
      "evm": {
        "bytecode": {
          "linkReferences": {},
          "object": "60806040527f7fffffffffffffffffffffffffffffffffffffffffffffffffffffffffffffff6000557f80000000000000000000000000000000000000000000000000000000000000006001556fb504f333f9de6484597d89b3754abe9f60025534801561006c57600080fd5b506108e68061007c6000396000f3fe608060405234801561001057600080fd5b506004361061009e5760003560e01c806399e08d3a1161006657806399e08d3a1461016f578063a5f3c23b1461019f578063adefc37b146101cf578063bbe93d91146101ff578063e09c7e3c1461022f5761009e565b80631b5ac4b5146100a35780631b755565146100d35780632797ec45146100f157806343509138146101215780635909c12f14610151575b600080fd5b6100bd60048036038101906100b891906106c7565b61024d565b6040516100ca91906107e4565b60405180910390f35b6100db610269565b6040516100e891906107e4565b60405180910390f35b61010b600480360381019061010691906106c7565b61026f565b60405161011891906107e4565b60405180910390f35b61013b600480360381019061013691906106f0565b6102c8565b60405161014891906107e4565b60405180910390f35b61015961031e565b60405161016691906107e4565b60405180910390f35b6101896004803603810190610184919061072c565b610324565b60405161019691906107e4565b60405180910390f35b6101b960048036038101906101b491906106f0565b610354565b6040516101c691906107e4565b60405180910390f35b6101e960048036038101906101e491906106f0565b61041f565b6040516101f691906107e4565b60405180910390f35b610219600480360381019061021491906106f0565b6104ea565b60405161022691906107e4565b60405180910390f35b6102376105dc565b60405161024491906107e4565b60405180910390f35b6000808212156102605781600003610262565b815b9050919050565b60005481565b600060025461027d8361024d565b13156102be576040517f08c379a00000000000000000000000000000000000000000000000000000000081526004016102b5906107ff565b60405180910390fd5b8182029050919050565b600080821361030c576040517f08c379a00000000000000000000000000000000000000000000000000000000081526004016103039061081f565b60405180910390fd5b81838161031557fe5b05905092915050565b60025481565b600061034d827bffffffffffffffffffffffffffffffffffffffffffffffffffffffff166105e2565b9050919050565b600080831380156103655750600082135b156103b65781600054038313156103b1576040517f08c379a00000000000000000000000000000000000000000000000000000000081526004016103a8906107ff565b60405180910390fd5b610414565b6000831280156103c65750600082125b15610413578160015403831215610412576040517f08c379a0000000000000000000000000000000000000000000000000000000008152600401610409906107ff565b60405180910390fd5b5b5b818301905092915050565b600080831380156104305750600082125b1561048157816000540183131561047c576040517f08c379a0000000000000000000000000000000000000000000000000000000008152600401610473906107ff565b60405180910390fd5b6104df565b6000831280156104915750600082135b156104de5781600154018312156104dd576040517f08c379a00000000000000000000000000000000000000000000000000000000081526004016104d4906107ff565b60405180910390fd5b5b5b818303905092915050565b60006002546104f88461024d565b12610560576105068361024d565b6000548161051057fe5b0561051a8361024d565b131561055b576040517f08c379a0000000000000000000000000000000000000000000000000000000008152600401610552906107ff565b60405180910390fd5b6105d1565b60025461056c8361024d565b126105d05761057a8261024d565b6000548161058457fe5b0561058e8461024d565b13156105cf576040517f08c379a00000000000000000000000000000000000000000000000000000000081526004016105c6906107ff565b60405180910390fd5b5b5b818302905092915050565b60015481565b60008060007bffffffffffffffffffffffffffffffffffffffffffffffffffffffff90506002600182037bffffffffffffffffffffffffffffffffffffffffffffffffffffffff168161063157fe5b047bffffffffffffffffffffffffffffffffffffffffffffffffffffffff16847bffffffffffffffffffffffffffffffffffffffffffffffffffffffff16116106875760008401915081601b0b92505050610698565b600181850303915081601b0b925050505b919050565b6000813590506106ac81610882565b92915050565b6000813590506106c181610899565b92915050565b6000602082840312156106d957600080fd5b60006106e78482850161069d565b91505092915050565b6000806040838503121561070357600080fd5b60006107118582860161069d565b92505060206107228582860161069d565b9150509250929050565b60006020828403121561073e57600080fd5b600061074c848285016106b2565b91505092915050565b61075e81610850565b82525050565b6000610771600d8361083f565b91507f77696c6c206f766572666c6f77000000000000000000000000000000000000006000830152602082019050919050565b60006107b160158361083f565b91507f63616e6e6f7420646976696465206279207a65726f00000000000000000000006000830152602082019050919050565b60006020820190506107f96000830184610755565b92915050565b6000602082019050818103600083015261081881610764565b9050919050565b60006020820190508181036000830152610838816107a4565b9050919050565b600082825260208201905092915050565b6000819050919050565b60007bffffffffffffffffffffffffffffffffffffffffffffffffffffffff82169050919050565b61088b81610850565b811461089657600080fd5b50565b6108a28161085a565b81146108ad57600080fd5b5056fea2646970667358221220f8236861dc9a81074b1726776752b78e44798a36f83d2623f5463770f1d1c43264736f6c63430006080033",
          "opcodes": "PUSH1 0x80 PUSH1 0x40 MSTORE PUSH32 0x7FFFFFFFFFFFFFFFFFFFFFFFFFFFFFFFFFFFFFFFFFFFFFFFFFFFFFFFFFFFFFFF PUSH1 0x0 SSTORE PUSH32 0x8000000000000000000000000000000000000000000000000000000000000000 PUSH1 0x1 SSTORE PUSH16 0xB504F333F9DE6484597D89B3754ABE9F PUSH1 0x2 SSTORE CALLVALUE DUP1 ISZERO PUSH2 0x6C JUMPI PUSH1 0x0 DUP1 REVERT JUMPDEST POP PUSH2 0x8E6 DUP1 PUSH2 0x7C PUSH1 0x0 CODECOPY PUSH1 0x0 RETURN INVALID PUSH1 0x80 PUSH1 0x40 MSTORE CALLVALUE DUP1 ISZERO PUSH2 0x10 JUMPI PUSH1 0x0 DUP1 REVERT JUMPDEST POP PUSH1 0x4 CALLDATASIZE LT PUSH2 0x9E JUMPI PUSH1 0x0 CALLDATALOAD PUSH1 0xE0 SHR DUP1 PUSH4 0x99E08D3A GT PUSH2 0x66 JUMPI DUP1 PUSH4 0x99E08D3A EQ PUSH2 0x16F JUMPI DUP1 PUSH4 0xA5F3C23B EQ PUSH2 0x19F JUMPI DUP1 PUSH4 0xADEFC37B EQ PUSH2 0x1CF JUMPI DUP1 PUSH4 0xBBE93D91 EQ PUSH2 0x1FF JUMPI DUP1 PUSH4 0xE09C7E3C EQ PUSH2 0x22F JUMPI PUSH2 0x9E JUMP JUMPDEST DUP1 PUSH4 0x1B5AC4B5 EQ PUSH2 0xA3 JUMPI DUP1 PUSH4 0x1B755565 EQ PUSH2 0xD3 JUMPI DUP1 PUSH4 0x2797EC45 EQ PUSH2 0xF1 JUMPI DUP1 PUSH4 0x43509138 EQ PUSH2 0x121 JUMPI DUP1 PUSH4 0x5909C12F EQ PUSH2 0x151 JUMPI JUMPDEST PUSH1 0x0 DUP1 REVERT JUMPDEST PUSH2 0xBD PUSH1 0x4 DUP1 CALLDATASIZE SUB DUP2 ADD SWAP1 PUSH2 0xB8 SWAP2 SWAP1 PUSH2 0x6C7 JUMP JUMPDEST PUSH2 0x24D JUMP JUMPDEST PUSH1 0x40 MLOAD PUSH2 0xCA SWAP2 SWAP1 PUSH2 0x7E4 JUMP JUMPDEST PUSH1 0x40 MLOAD DUP1 SWAP2 SUB SWAP1 RETURN JUMPDEST PUSH2 0xDB PUSH2 0x269 JUMP JUMPDEST PUSH1 0x40 MLOAD PUSH2 0xE8 SWAP2 SWAP1 PUSH2 0x7E4 JUMP JUMPDEST PUSH1 0x40 MLOAD DUP1 SWAP2 SUB SWAP1 RETURN JUMPDEST PUSH2 0x10B PUSH1 0x4 DUP1 CALLDATASIZE SUB DUP2 ADD SWAP1 PUSH2 0x106 SWAP2 SWAP1 PUSH2 0x6C7 JUMP JUMPDEST PUSH2 0x26F JUMP JUMPDEST PUSH1 0x40 MLOAD PUSH2 0x118 SWAP2 SWAP1 PUSH2 0x7E4 JUMP JUMPDEST PUSH1 0x40 MLOAD DUP1 SWAP2 SUB SWAP1 RETURN JUMPDEST PUSH2 0x13B PUSH1 0x4 DUP1 CALLDATASIZE SUB DUP2 ADD SWAP1 PUSH2 0x136 SWAP2 SWAP1 PUSH2 0x6F0 JUMP JUMPDEST PUSH2 0x2C8 JUMP JUMPDEST PUSH1 0x40 MLOAD PUSH2 0x148 SWAP2 SWAP1 PUSH2 0x7E4 JUMP JUMPDEST PUSH1 0x40 MLOAD DUP1 SWAP2 SUB SWAP1 RETURN JUMPDEST PUSH2 0x159 PUSH2 0x31E JUMP JUMPDEST PUSH1 0x40 MLOAD PUSH2 0x166 SWAP2 SWAP1 PUSH2 0x7E4 JUMP JUMPDEST PUSH1 0x40 MLOAD DUP1 SWAP2 SUB SWAP1 RETURN JUMPDEST PUSH2 0x189 PUSH1 0x4 DUP1 CALLDATASIZE SUB DUP2 ADD SWAP1 PUSH2 0x184 SWAP2 SWAP1 PUSH2 0x72C JUMP JUMPDEST PUSH2 0x324 JUMP JUMPDEST PUSH1 0x40 MLOAD PUSH2 0x196 SWAP2 SWAP1 PUSH2 0x7E4 JUMP JUMPDEST PUSH1 0x40 MLOAD DUP1 SWAP2 SUB SWAP1 RETURN JUMPDEST PUSH2 0x1B9 PUSH1 0x4 DUP1 CALLDATASIZE SUB DUP2 ADD SWAP1 PUSH2 0x1B4 SWAP2 SWAP1 PUSH2 0x6F0 JUMP JUMPDEST PUSH2 0x354 JUMP JUMPDEST PUSH1 0x40 MLOAD PUSH2 0x1C6 SWAP2 SWAP1 PUSH2 0x7E4 JUMP JUMPDEST PUSH1 0x40 MLOAD DUP1 SWAP2 SUB SWAP1 RETURN JUMPDEST PUSH2 0x1E9 PUSH1 0x4 DUP1 CALLDATASIZE SUB DUP2 ADD SWAP1 PUSH2 0x1E4 SWAP2 SWAP1 PUSH2 0x6F0 JUMP JUMPDEST PUSH2 0x41F JUMP JUMPDEST PUSH1 0x40 MLOAD PUSH2 0x1F6 SWAP2 SWAP1 PUSH2 0x7E4 JUMP JUMPDEST PUSH1 0x40 MLOAD DUP1 SWAP2 SUB SWAP1 RETURN JUMPDEST PUSH2 0x219 PUSH1 0x4 DUP1 CALLDATASIZE SUB DUP2 ADD SWAP1 PUSH2 0x214 SWAP2 SWAP1 PUSH2 0x6F0 JUMP JUMPDEST PUSH2 0x4EA JUMP JUMPDEST PUSH1 0x40 MLOAD PUSH2 0x226 SWAP2 SWAP1 PUSH2 0x7E4 JUMP JUMPDEST PUSH1 0x40 MLOAD DUP1 SWAP2 SUB SWAP1 RETURN JUMPDEST PUSH2 0x237 PUSH2 0x5DC JUMP JUMPDEST PUSH1 0x40 MLOAD PUSH2 0x244 SWAP2 SWAP1 PUSH2 0x7E4 JUMP JUMPDEST PUSH1 0x40 MLOAD DUP1 SWAP2 SUB SWAP1 RETURN JUMPDEST PUSH1 0x0 DUP1 DUP3 SLT ISZERO PUSH2 0x260 JUMPI DUP2 PUSH1 0x0 SUB PUSH2 0x262 JUMP JUMPDEST DUP2 JUMPDEST SWAP1 POP SWAP2 SWAP1 POP JUMP JUMPDEST PUSH1 0x0 SLOAD DUP2 JUMP JUMPDEST PUSH1 0x0 PUSH1 0x2 SLOAD PUSH2 0x27D DUP4 PUSH2 0x24D JUMP JUMPDEST SGT ISZERO PUSH2 0x2BE JUMPI PUSH1 0x40 MLOAD PUSH32 0x8C379A000000000000000000000000000000000000000000000000000000000 DUP2 MSTORE PUSH1 0x4 ADD PUSH2 0x2B5 SWAP1 PUSH2 0x7FF JUMP JUMPDEST PUSH1 0x40 MLOAD DUP1 SWAP2 SUB SWAP1 REVERT JUMPDEST DUP2 DUP3 MUL SWAP1 POP SWAP2 SWAP1 POP JUMP JUMPDEST PUSH1 0x0 DUP1 DUP3 SGT PUSH2 0x30C JUMPI PUSH1 0x40 MLOAD PUSH32 0x8C379A000000000000000000000000000000000000000000000000000000000 DUP2 MSTORE PUSH1 0x4 ADD PUSH2 0x303 SWAP1 PUSH2 0x81F JUMP JUMPDEST PUSH1 0x40 MLOAD DUP1 SWAP2 SUB SWAP1 REVERT JUMPDEST DUP2 DUP4 DUP2 PUSH2 0x315 JUMPI INVALID JUMPDEST SDIV SWAP1 POP SWAP3 SWAP2 POP POP JUMP JUMPDEST PUSH1 0x2 SLOAD DUP2 JUMP JUMPDEST PUSH1 0x0 PUSH2 0x34D DUP3 PUSH28 0xFFFFFFFFFFFFFFFFFFFFFFFFFFFFFFFFFFFFFFFFFFFFFFFFFFFFFFFF AND PUSH2 0x5E2 JUMP JUMPDEST SWAP1 POP SWAP2 SWAP1 POP JUMP JUMPDEST PUSH1 0x0 DUP1 DUP4 SGT DUP1 ISZERO PUSH2 0x365 JUMPI POP PUSH1 0x0 DUP3 SGT JUMPDEST ISZERO PUSH2 0x3B6 JUMPI DUP2 PUSH1 0x0 SLOAD SUB DUP4 SGT ISZERO PUSH2 0x3B1 JUMPI PUSH1 0x40 MLOAD PUSH32 0x8C379A000000000000000000000000000000000000000000000000000000000 DUP2 MSTORE PUSH1 0x4 ADD PUSH2 0x3A8 SWAP1 PUSH2 0x7FF JUMP JUMPDEST PUSH1 0x40 MLOAD DUP1 SWAP2 SUB SWAP1 REVERT JUMPDEST PUSH2 0x414 JUMP JUMPDEST PUSH1 0x0 DUP4 SLT DUP1 ISZERO PUSH2 0x3C6 JUMPI POP PUSH1 0x0 DUP3 SLT JUMPDEST ISZERO PUSH2 0x413 JUMPI DUP2 PUSH1 0x1 SLOAD SUB DUP4 SLT ISZERO PUSH2 0x412 JUMPI PUSH1 0x40 MLOAD PUSH32 0x8C379A000000000000000000000000000000000000000000000000000000000 DUP2 MSTORE PUSH1 0x4 ADD PUSH2 0x409 SWAP1 PUSH2 0x7FF JUMP JUMPDEST PUSH1 0x40 MLOAD DUP1 SWAP2 SUB SWAP1 REVERT JUMPDEST JUMPDEST JUMPDEST DUP2 DUP4 ADD SWAP1 POP SWAP3 SWAP2 POP POP JUMP JUMPDEST PUSH1 0x0 DUP1 DUP4 SGT DUP1 ISZERO PUSH2 0x430 JUMPI POP PUSH1 0x0 DUP3 SLT JUMPDEST ISZERO PUSH2 0x481 JUMPI DUP2 PUSH1 0x0 SLOAD ADD DUP4 SGT ISZERO PUSH2 0x47C JUMPI PUSH1 0x40 MLOAD PUSH32 0x8C379A000000000000000000000000000000000000000000000000000000000 DUP2 MSTORE PUSH1 0x4 ADD PUSH2 0x473 SWAP1 PUSH2 0x7FF JUMP JUMPDEST PUSH1 0x40 MLOAD DUP1 SWAP2 SUB SWAP1 REVERT JUMPDEST PUSH2 0x4DF JUMP JUMPDEST PUSH1 0x0 DUP4 SLT DUP1 ISZERO PUSH2 0x491 JUMPI POP PUSH1 0x0 DUP3 SGT JUMPDEST ISZERO PUSH2 0x4DE JUMPI DUP2 PUSH1 0x1 SLOAD ADD DUP4 SLT ISZERO PUSH2 0x4DD JUMPI PUSH1 0x40 MLOAD PUSH32 0x8C379A000000000000000000000000000000000000000000000000000000000 DUP2 MSTORE PUSH1 0x4 ADD PUSH2 0x4D4 SWAP1 PUSH2 0x7FF JUMP JUMPDEST PUSH1 0x40 MLOAD DUP1 SWAP2 SUB SWAP1 REVERT JUMPDEST JUMPDEST JUMPDEST DUP2 DUP4 SUB SWAP1 POP SWAP3 SWAP2 POP POP JUMP JUMPDEST PUSH1 0x0 PUSH1 0x2 SLOAD PUSH2 0x4F8 DUP5 PUSH2 0x24D JUMP JUMPDEST SLT PUSH2 0x560 JUMPI PUSH2 0x506 DUP4 PUSH2 0x24D JUMP JUMPDEST PUSH1 0x0 SLOAD DUP2 PUSH2 0x510 JUMPI INVALID JUMPDEST SDIV PUSH2 0x51A DUP4 PUSH2 0x24D JUMP JUMPDEST SGT ISZERO PUSH2 0x55B JUMPI PUSH1 0x40 MLOAD PUSH32 0x8C379A000000000000000000000000000000000000000000000000000000000 DUP2 MSTORE PUSH1 0x4 ADD PUSH2 0x552 SWAP1 PUSH2 0x7FF JUMP JUMPDEST PUSH1 0x40 MLOAD DUP1 SWAP2 SUB SWAP1 REVERT JUMPDEST PUSH2 0x5D1 JUMP JUMPDEST PUSH1 0x2 SLOAD PUSH2 0x56C DUP4 PUSH2 0x24D JUMP JUMPDEST SLT PUSH2 0x5D0 JUMPI PUSH2 0x57A DUP3 PUSH2 0x24D JUMP JUMPDEST PUSH1 0x0 SLOAD DUP2 PUSH2 0x584 JUMPI INVALID JUMPDEST SDIV PUSH2 0x58E DUP5 PUSH2 0x24D JUMP JUMPDEST SGT ISZERO PUSH2 0x5CF JUMPI PUSH1 0x40 MLOAD PUSH32 0x8C379A000000000000000000000000000000000000000000000000000000000 DUP2 MSTORE PUSH1 0x4 ADD PUSH2 0x5C6 SWAP1 PUSH2 0x7FF JUMP JUMPDEST PUSH1 0x40 MLOAD DUP1 SWAP2 SUB SWAP1 REVERT JUMPDEST JUMPDEST JUMPDEST DUP2 DUP4 MUL SWAP1 POP SWAP3 SWAP2 POP POP JUMP JUMPDEST PUSH1 0x1 SLOAD DUP2 JUMP JUMPDEST PUSH1 0x0 DUP1 PUSH1 0x0 PUSH28 0xFFFFFFFFFFFFFFFFFFFFFFFFFFFFFFFFFFFFFFFFFFFFFFFFFFFFFFFF SWAP1 POP PUSH1 0x2 PUSH1 0x1 DUP3 SUB PUSH28 0xFFFFFFFFFFFFFFFFFFFFFFFFFFFFFFFFFFFFFFFFFFFFFFFFFFFFFFFF AND DUP2 PUSH2 0x631 JUMPI INVALID JUMPDEST DIV PUSH28 0xFFFFFFFFFFFFFFFFFFFFFFFFFFFFFFFFFFFFFFFFFFFFFFFFFFFFFFFF AND DUP5 PUSH28 0xFFFFFFFFFFFFFFFFFFFFFFFFFFFFFFFFFFFFFFFFFFFFFFFFFFFFFFFF AND GT PUSH2 0x687 JUMPI PUSH1 0x0 DUP5 ADD SWAP2 POP DUP2 PUSH1 0x1B SIGNEXTEND SWAP3 POP POP POP PUSH2 0x698 JUMP JUMPDEST PUSH1 0x1 DUP2 DUP6 SUB SUB SWAP2 POP DUP2 PUSH1 0x1B SIGNEXTEND SWAP3 POP POP POP JUMPDEST SWAP2 SWAP1 POP JUMP JUMPDEST PUSH1 0x0 DUP2 CALLDATALOAD SWAP1 POP PUSH2 0x6AC DUP2 PUSH2 0x882 JUMP JUMPDEST SWAP3 SWAP2 POP POP JUMP JUMPDEST PUSH1 0x0 DUP2 CALLDATALOAD SWAP1 POP PUSH2 0x6C1 DUP2 PUSH2 0x899 JUMP JUMPDEST SWAP3 SWAP2 POP POP JUMP JUMPDEST PUSH1 0x0 PUSH1 0x20 DUP3 DUP5 SUB SLT ISZERO PUSH2 0x6D9 JUMPI PUSH1 0x0 DUP1 REVERT JUMPDEST PUSH1 0x0 PUSH2 0x6E7 DUP5 DUP3 DUP6 ADD PUSH2 0x69D JUMP JUMPDEST SWAP2 POP POP SWAP3 SWAP2 POP POP JUMP JUMPDEST PUSH1 0x0 DUP1 PUSH1 0x40 DUP4 DUP6 SUB SLT ISZERO PUSH2 0x703 JUMPI PUSH1 0x0 DUP1 REVERT JUMPDEST PUSH1 0x0 PUSH2 0x711 DUP6 DUP3 DUP7 ADD PUSH2 0x69D JUMP JUMPDEST SWAP3 POP POP PUSH1 0x20 PUSH2 0x722 DUP6 DUP3 DUP7 ADD PUSH2 0x69D JUMP JUMPDEST SWAP2 POP POP SWAP3 POP SWAP3 SWAP1 POP JUMP JUMPDEST PUSH1 0x0 PUSH1 0x20 DUP3 DUP5 SUB SLT ISZERO PUSH2 0x73E JUMPI PUSH1 0x0 DUP1 REVERT JUMPDEST PUSH1 0x0 PUSH2 0x74C DUP5 DUP3 DUP6 ADD PUSH2 0x6B2 JUMP JUMPDEST SWAP2 POP POP SWAP3 SWAP2 POP POP JUMP JUMPDEST PUSH2 0x75E DUP2 PUSH2 0x850 JUMP JUMPDEST DUP3 MSTORE POP POP JUMP JUMPDEST PUSH1 0x0 PUSH2 0x771 PUSH1 0xD DUP4 PUSH2 0x83F JUMP JUMPDEST SWAP2 POP PUSH32 0x77696C6C206F766572666C6F7700000000000000000000000000000000000000 PUSH1 0x0 DUP4 ADD MSTORE PUSH1 0x20 DUP3 ADD SWAP1 POP SWAP2 SWAP1 POP JUMP JUMPDEST PUSH1 0x0 PUSH2 0x7B1 PUSH1 0x15 DUP4 PUSH2 0x83F JUMP JUMPDEST SWAP2 POP PUSH32 0x63616E6E6F7420646976696465206279207A65726F0000000000000000000000 PUSH1 0x0 DUP4 ADD MSTORE PUSH1 0x20 DUP3 ADD SWAP1 POP SWAP2 SWAP1 POP JUMP JUMPDEST PUSH1 0x0 PUSH1 0x20 DUP3 ADD SWAP1 POP PUSH2 0x7F9 PUSH1 0x0 DUP4 ADD DUP5 PUSH2 0x755 JUMP JUMPDEST SWAP3 SWAP2 POP POP JUMP JUMPDEST PUSH1 0x0 PUSH1 0x20 DUP3 ADD SWAP1 POP DUP2 DUP2 SUB PUSH1 0x0 DUP4 ADD MSTORE PUSH2 0x818 DUP2 PUSH2 0x764 JUMP JUMPDEST SWAP1 POP SWAP2 SWAP1 POP JUMP JUMPDEST PUSH1 0x0 PUSH1 0x20 DUP3 ADD SWAP1 POP DUP2 DUP2 SUB PUSH1 0x0 DUP4 ADD MSTORE PUSH2 0x838 DUP2 PUSH2 0x7A4 JUMP JUMPDEST SWAP1 POP SWAP2 SWAP1 POP JUMP JUMPDEST PUSH1 0x0 DUP3 DUP3 MSTORE PUSH1 0x20 DUP3 ADD SWAP1 POP SWAP3 SWAP2 POP POP JUMP JUMPDEST PUSH1 0x0 DUP2 SWAP1 POP SWAP2 SWAP1 POP JUMP JUMPDEST PUSH1 0x0 PUSH28 0xFFFFFFFFFFFFFFFFFFFFFFFFFFFFFFFFFFFFFFFFFFFFFFFFFFFFFFFF DUP3 AND SWAP1 POP SWAP2 SWAP1 POP JUMP JUMPDEST PUSH2 0x88B DUP2 PUSH2 0x850 JUMP JUMPDEST DUP2 EQ PUSH2 0x896 JUMPI PUSH1 0x0 DUP1 REVERT JUMPDEST POP JUMP JUMPDEST PUSH2 0x8A2 DUP2 PUSH2 0x85A JUMP JUMPDEST DUP2 EQ PUSH2 0x8AD JUMPI PUSH1 0x0 DUP1 REVERT JUMPDEST POP JUMP INVALID LOG2 PUSH5 0x6970667358 0x22 SLT KECCAK256 0xF8 0x23 PUSH9 0x61DC9A81074B172677 PUSH8 0x52B78E44798A36F8 RETURNDATASIZE 0x26 0x23 CREATE2 CHAINID CALLDATACOPY PUSH17 0xF1D1C43264736F6C634300060800330000 "
        },
        "methodIdentifiers": {
          "MAX_SIGNED_INT()": "1b755565",
          "MIN_SIGNED_INT()": "e09c7e3c",
          "ROOT()": "5909c12f",
          "abs(int256)": "1b5ac4b5",
          "add(int256,int256)": "a5f3c23b",
          "convertUintToInt(uint224)": "99e08d3a",
          "div(int256,int256)": "43509138",
          "mul(int256,int256)": "bbe93d91",
          "square(int256)": "2797ec45",
          "sub(int256,int256)": "adefc37b"
        }
      }
    }
  }
}