{
  "src/contracts/examples/ExampleContract.sol": {
    "ExampleContract": {
      "abi": [
        {
          "inputs": [],
          "name": "MAX_SIGNED_INT",
          "outputs": [
            {
              "internalType": "int256",
              "name": "",
              "type": "int256"
            }
          ],
          "stateMutability": "view",
          "type": "function"
        },
        {
          "inputs": [],
          "name": "MIN_SIGNED_INT",
          "outputs": [
            {
              "internalType": "int256",
              "name": "",
              "type": "int256"
            }
          ],
          "stateMutability": "view",
          "type": "function"
        },
        {
          "inputs": [],
          "name": "ROOT",
          "outputs": [
            {
              "internalType": "int256",
              "name": "",
              "type": "int256"
            }
          ],
          "stateMutability": "view",
          "type": "function"
        },
        {
          "inputs": [
            {
              "internalType": "int256",
              "name": "x",
              "type": "int256"
            }
          ],
          "name": "abs",
          "outputs": [
            {
              "internalType": "int256",
              "name": "",
              "type": "int256"
            }
          ],
          "stateMutability": "pure",
          "type": "function"
        },
        {
          "inputs": [
            {
              "internalType": "int256",
              "name": "a",
              "type": "int256"
            },
            {
              "internalType": "int256",
              "name": "b",
              "type": "int256"
            }
          ],
          "name": "add",
          "outputs": [
            {
              "internalType": "int256",
              "name": "",
              "type": "int256"
            }
          ],
          "stateMutability": "view",
          "type": "function"
        },
        {
          "inputs": [
            {
              "internalType": "uint224",
              "name": "u",
              "type": "uint224"
            }
          ],
          "name": "convertUintToInt",
          "outputs": [
            {
              "internalType": "int256",
              "name": "",
              "type": "int256"
            }
          ],
          "stateMutability": "pure",
          "type": "function"
        },
        {
          "inputs": [
            {
              "internalType": "int256",
              "name": "a",
              "type": "int256"
            },
            {
              "internalType": "int256",
              "name": "b",
              "type": "int256"
            }
          ],
          "name": "div",
          "outputs": [
            {
              "internalType": "int256",
              "name": "",
              "type": "int256"
            }
          ],
          "stateMutability": "pure",
          "type": "function"
        },
        {
          "inputs": [
            {
              "internalType": "int256",
              "name": "a",
              "type": "int256"
            },
            {
              "internalType": "int256",
              "name": "b",
              "type": "int256"
            }
          ],
          "name": "mul",
          "outputs": [
            {
              "internalType": "int256",
              "name": "",
              "type": "int256"
            }
          ],
          "stateMutability": "view",
          "type": "function"
        },
        {
          "inputs": [
            {
              "internalType": "int256",
              "name": "a",
              "type": "int256"
            }
          ],
          "name": "square",
          "outputs": [
            {
              "internalType": "int256",
              "name": "",
              "type": "int256"
            }
          ],
          "stateMutability": "view",
          "type": "function"
        },
        {
          "inputs": [
            {
              "internalType": "int256",
              "name": "a",
              "type": "int256"
            },
            {
              "internalType": "int256",
              "name": "b",
              "type": "int256"
            }
          ],
          "name": "sub",
          "outputs": [
            {
              "internalType": "int256",
              "name": "",
              "type": "int256"
            }
          ],
          "stateMutability": "view",
          "type": "function"
        }
      ],
      "evm": {
        "bytecode": {
          "linkReferences": {},
          "object": "60806040527f7fffffffffffffffffffffffffffffffffffffffffffffffffffffffffffffff6000557f80000000000000000000000000000000000000000000000000000000000000006001556fb504f333f9de6484597d89b3754abe9f60025534801561006c57600080fd5b50610a678061007c6000396000f3fe608060405234801561001057600080fd5b506004361061009e5760003560e01c806399e08d3a1161006657806399e08d3a1461016f578063a5f3c23b1461019f578063adefc37b146101cf578063bbe93d91146101ff578063e09c7e3c1461022f5761009e565b80631b5ac4b5146100a35780631b755565146100d35780632797ec45146100f157806343509138146101215780635909c12f14610151575b600080fd5b6100bd60048036038101906100b891906106c8565b61024d565b6040516100ca91906108e5565b60405180910390f35b6100db610269565b6040516100e891906108e5565b60405180910390f35b61010b600480360381019061010691906106c8565b61026f565b60405161011891906108e5565b60405180910390f35b61013b600480360381019061013691906106f1565b6102c8565b60405161014891906108e5565b60405180910390f35b61015961031f565b60405161016691906108e5565b60405180910390f35b6101896004803603810190610184919061072d565b610325565b60405161019691906108e5565b60405180910390f35b6101b960048036038101906101b491906106f1565b610355565b6040516101c691906108e5565b60405180910390f35b6101e960048036038101906101e491906106f1565b610420565b6040516101f691906108e5565b60405180910390f35b610219600480360381019061021491906106f1565b6104eb565b60405161022691906108e5565b60405180910390f35b6102376105dd565b60405161024491906108e5565b60405180910390f35b6000808212156102605781600003610262565b815b9050919050565b60005481565b600060025461027d8361024d565b13156102be576040517f08c379a00000000000000000000000000000000000000000000000000000000081526004016102b590610940565b60405180910390fd5b8182029050919050565b60008082141561030d576040517f08c379a0000000000000000000000000000000000000000000000000000000008152600401610304906109a0565b60405180910390fd5b81838161031657fe5b05905092915050565b60025481565b600061034e827bffffffffffffffffffffffffffffffffffffffffffffffffffffffff166105e3565b9050919050565b600080831380156103665750600082135b156103b75781600054038313156103b2576040517f08c379a00000000000000000000000000000000000000000000000000000000081526004016103a990610920565b60405180910390fd5b610415565b6000831280156103c75750600082125b15610414578160015403831215610413576040517f08c379a000000000000000000000000000000000000000000000000000000000815260040161040a90610960565b60405180910390fd5b5b5b818301905092915050565b600080831380156104315750600082125b1561048257816000540183131561047d576040517f08c379a000000000000000000000000000000000000000000000000000000000815260040161047490610920565b60405180910390fd5b6104e0565b6000831280156104925750600082135b156104df5781600154018312156104de576040517f08c379a00000000000000000000000000000000000000000000000000000000081526004016104d590610960565b60405180910390fd5b5b5b818303905092915050565b60006002546104f98461024d565b12610561576105078361024d565b6000548161051157fe5b0561051b8361024d565b131561055c576040517f08c379a000000000000000000000000000000000000000000000000000000000815260040161055390610900565b60405180910390fd5b6105d2565b60025461056d8361024d565b126105d15761057b8261024d565b6000548161058557fe5b0561058f8461024d565b13156105d0576040517f08c379a00000000000000000000000000000000000000000000000000000000081526004016105c790610980565b60405180910390fd5b5b5b818302905092915050565b60015481565b60008060007bffffffffffffffffffffffffffffffffffffffffffffffffffffffff90506002600182037bffffffffffffffffffffffffffffffffffffffffffffffffffffffff168161063257fe5b047bffffffffffffffffffffffffffffffffffffffffffffffffffffffff16847bffffffffffffffffffffffffffffffffffffffffffffffffffffffff16116106885760008401915081601b0b92505050610699565b600181850303915081601b0b925050505b919050565b6000813590506106ad81610a03565b92915050565b6000813590506106c281610a1a565b92915050565b6000602082840312156106da57600080fd5b60006106e88482850161069e565b91505092915050565b6000806040838503121561070457600080fd5b60006107128582860161069e565b92505060206107238582860161069e565b9150509250929050565b60006020828403121561073f57600080fd5b600061074d848285016106b3565b91505092915050565b61075f816109d1565b82525050565b60006107726010836109c0565b91507f77696c6c206f766572666c6f773a2061000000000000000000000000000000006000830152602082019050919050565b60006107b2601c836109c0565b91507f77696c6c206f766572666c6f77206d6178207369676e656420696e74000000006000830152602082019050919050565b60006107f2600d836109c0565b91507f77696c6c206f766572666c6f77000000000000000000000000000000000000006000830152602082019050919050565b6000610832601c836109c0565b91507f77696c6c206f766572666c6f77206d696e207369676e656420696e74000000006000830152602082019050919050565b60006108726010836109c0565b91507f77696c6c206f766572666c6f773a2062000000000000000000000000000000006000830152602082019050919050565b60006108b26015836109c0565b91507f63616e6e6f7420646976696465206279207a65726f00000000000000000000006000830152602082019050919050565b60006020820190506108fa6000830184610756565b92915050565b6000602082019050818103600083015261091981610765565b9050919050565b60006020820190508181036000830152610939816107a5565b9050919050565b60006020820190508181036000830152610959816107e5565b9050919050565b6000602082019050818103600083015261097981610825565b9050919050565b6000602082019050818103600083015261099981610865565b9050919050565b600060208201905081810360008301526109b9816108a5565b9050919050565b600082825260208201905092915050565b6000819050919050565b60007bffffffffffffffffffffffffffffffffffffffffffffffffffffffff82169050919050565b610a0c816109d1565b8114610a1757600080fd5b50565b610a23816109db565b8114610a2e57600080fd5b5056fea2646970667358221220dd450bc36b9d89ec516a912f10e0ff85db30a0ec8f8270b4858436e85e08076264736f6c63430006080033",
          "opcodes": "PUSH1 0x80 PUSH1 0x40 MSTORE PUSH32 0x7FFFFFFFFFFFFFFFFFFFFFFFFFFFFFFFFFFFFFFFFFFFFFFFFFFFFFFFFFFFFFFF PUSH1 0x0 SSTORE PUSH32 0x8000000000000000000000000000000000000000000000000000000000000000 PUSH1 0x1 SSTORE PUSH16 0xB504F333F9DE6484597D89B3754ABE9F PUSH1 0x2 SSTORE CALLVALUE DUP1 ISZERO PUSH2 0x6C JUMPI PUSH1 0x0 DUP1 REVERT JUMPDEST POP PUSH2 0xA67 DUP1 PUSH2 0x7C PUSH1 0x0 CODECOPY PUSH1 0x0 RETURN INVALID PUSH1 0x80 PUSH1 0x40 MSTORE CALLVALUE DUP1 ISZERO PUSH2 0x10 JUMPI PUSH1 0x0 DUP1 REVERT JUMPDEST POP PUSH1 0x4 CALLDATASIZE LT PUSH2 0x9E JUMPI PUSH1 0x0 CALLDATALOAD PUSH1 0xE0 SHR DUP1 PUSH4 0x99E08D3A GT PUSH2 0x66 JUMPI DUP1 PUSH4 0x99E08D3A EQ PUSH2 0x16F JUMPI DUP1 PUSH4 0xA5F3C23B EQ PUSH2 0x19F JUMPI DUP1 PUSH4 0xADEFC37B EQ PUSH2 0x1CF JUMPI DUP1 PUSH4 0xBBE93D91 EQ PUSH2 0x1FF JUMPI DUP1 PUSH4 0xE09C7E3C EQ PUSH2 0x22F JUMPI PUSH2 0x9E JUMP JUMPDEST DUP1 PUSH4 0x1B5AC4B5 EQ PUSH2 0xA3 JUMPI DUP1 PUSH4 0x1B755565 EQ PUSH2 0xD3 JUMPI DUP1 PUSH4 0x2797EC45 EQ PUSH2 0xF1 JUMPI DUP1 PUSH4 0x43509138 EQ PUSH2 0x121 JUMPI DUP1 PUSH4 0x5909C12F EQ PUSH2 0x151 JUMPI JUMPDEST PUSH1 0x0 DUP1 REVERT JUMPDEST PUSH2 0xBD PUSH1 0x4 DUP1 CALLDATASIZE SUB DUP2 ADD SWAP1 PUSH2 0xB8 SWAP2 SWAP1 PUSH2 0x6C8 JUMP JUMPDEST PUSH2 0x24D JUMP JUMPDEST PUSH1 0x40 MLOAD PUSH2 0xCA SWAP2 SWAP1 PUSH2 0x8E5 JUMP JUMPDEST PUSH1 0x40 MLOAD DUP1 SWAP2 SUB SWAP1 RETURN JUMPDEST PUSH2 0xDB PUSH2 0x269 JUMP JUMPDEST PUSH1 0x40 MLOAD PUSH2 0xE8 SWAP2 SWAP1 PUSH2 0x8E5 JUMP JUMPDEST PUSH1 0x40 MLOAD DUP1 SWAP2 SUB SWAP1 RETURN JUMPDEST PUSH2 0x10B PUSH1 0x4 DUP1 CALLDATASIZE SUB DUP2 ADD SWAP1 PUSH2 0x106 SWAP2 SWAP1 PUSH2 0x6C8 JUMP JUMPDEST PUSH2 0x26F JUMP JUMPDEST PUSH1 0x40 MLOAD PUSH2 0x118 SWAP2 SWAP1 PUSH2 0x8E5 JUMP JUMPDEST PUSH1 0x40 MLOAD DUP1 SWAP2 SUB SWAP1 RETURN JUMPDEST PUSH2 0x13B PUSH1 0x4 DUP1 CALLDATASIZE SUB DUP2 ADD SWAP1 PUSH2 0x136 SWAP2 SWAP1 PUSH2 0x6F1 JUMP JUMPDEST PUSH2 0x2C8 JUMP JUMPDEST PUSH1 0x40 MLOAD PUSH2 0x148 SWAP2 SWAP1 PUSH2 0x8E5 JUMP JUMPDEST PUSH1 0x40 MLOAD DUP1 SWAP2 SUB SWAP1 RETURN JUMPDEST PUSH2 0x159 PUSH2 0x31F JUMP JUMPDEST PUSH1 0x40 MLOAD PUSH2 0x166 SWAP2 SWAP1 PUSH2 0x8E5 JUMP JUMPDEST PUSH1 0x40 MLOAD DUP1 SWAP2 SUB SWAP1 RETURN JUMPDEST PUSH2 0x189 PUSH1 0x4 DUP1 CALLDATASIZE SUB DUP2 ADD SWAP1 PUSH2 0x184 SWAP2 SWAP1 PUSH2 0x72D JUMP JUMPDEST PUSH2 0x325 JUMP JUMPDEST PUSH1 0x40 MLOAD PUSH2 0x196 SWAP2 SWAP1 PUSH2 0x8E5 JUMP JUMPDEST PUSH1 0x40 MLOAD DUP1 SWAP2 SUB SWAP1 RETURN JUMPDEST PUSH2 0x1B9 PUSH1 0x4 DUP1 CALLDATASIZE SUB DUP2 ADD SWAP1 PUSH2 0x1B4 SWAP2 SWAP1 PUSH2 0x6F1 JUMP JUMPDEST PUSH2 0x355 JUMP JUMPDEST PUSH1 0x40 MLOAD PUSH2 0x1C6 SWAP2 SWAP1 PUSH2 0x8E5 JUMP JUMPDEST PUSH1 0x40 MLOAD DUP1 SWAP2 SUB SWAP1 RETURN JUMPDEST PUSH2 0x1E9 PUSH1 0x4 DUP1 CALLDATASIZE SUB DUP2 ADD SWAP1 PUSH2 0x1E4 SWAP2 SWAP1 PUSH2 0x6F1 JUMP JUMPDEST PUSH2 0x420 JUMP JUMPDEST PUSH1 0x40 MLOAD PUSH2 0x1F6 SWAP2 SWAP1 PUSH2 0x8E5 JUMP JUMPDEST PUSH1 0x40 MLOAD DUP1 SWAP2 SUB SWAP1 RETURN JUMPDEST PUSH2 0x219 PUSH1 0x4 DUP1 CALLDATASIZE SUB DUP2 ADD SWAP1 PUSH2 0x214 SWAP2 SWAP1 PUSH2 0x6F1 JUMP JUMPDEST PUSH2 0x4EB JUMP JUMPDEST PUSH1 0x40 MLOAD PUSH2 0x226 SWAP2 SWAP1 PUSH2 0x8E5 JUMP JUMPDEST PUSH1 0x40 MLOAD DUP1 SWAP2 SUB SWAP1 RETURN JUMPDEST PUSH2 0x237 PUSH2 0x5DD JUMP JUMPDEST PUSH1 0x40 MLOAD PUSH2 0x244 SWAP2 SWAP1 PUSH2 0x8E5 JUMP JUMPDEST PUSH1 0x40 MLOAD DUP1 SWAP2 SUB SWAP1 RETURN JUMPDEST PUSH1 0x0 DUP1 DUP3 SLT ISZERO PUSH2 0x260 JUMPI DUP2 PUSH1 0x0 SUB PUSH2 0x262 JUMP JUMPDEST DUP2 JUMPDEST SWAP1 POP SWAP2 SWAP1 POP JUMP JUMPDEST PUSH1 0x0 SLOAD DUP2 JUMP JUMPDEST PUSH1 0x0 PUSH1 0x2 SLOAD PUSH2 0x27D DUP4 PUSH2 0x24D JUMP JUMPDEST SGT ISZERO PUSH2 0x2BE JUMPI PUSH1 0x40 MLOAD PUSH32 0x8C379A000000000000000000000000000000000000000000000000000000000 DUP2 MSTORE PUSH1 0x4 ADD PUSH2 0x2B5 SWAP1 PUSH2 0x940 JUMP JUMPDEST PUSH1 0x40 MLOAD DUP1 SWAP2 SUB SWAP1 REVERT JUMPDEST DUP2 DUP3 MUL SWAP1 POP SWAP2 SWAP1 POP JUMP JUMPDEST PUSH1 0x0 DUP1 DUP3 EQ ISZERO PUSH2 0x30D JUMPI PUSH1 0x40 MLOAD PUSH32 0x8C379A000000000000000000000000000000000000000000000000000000000 DUP2 MSTORE PUSH1 0x4 ADD PUSH2 0x304 SWAP1 PUSH2 0x9A0 JUMP JUMPDEST PUSH1 0x40 MLOAD DUP1 SWAP2 SUB SWAP1 REVERT JUMPDEST DUP2 DUP4 DUP2 PUSH2 0x316 JUMPI INVALID JUMPDEST SDIV SWAP1 POP SWAP3 SWAP2 POP POP JUMP JUMPDEST PUSH1 0x2 SLOAD DUP2 JUMP JUMPDEST PUSH1 0x0 PUSH2 0x34E DUP3 PUSH28 0xFFFFFFFFFFFFFFFFFFFFFFFFFFFFFFFFFFFFFFFFFFFFFFFFFFFFFFFF AND PUSH2 0x5E3 JUMP JUMPDEST SWAP1 POP SWAP2 SWAP1 POP JUMP JUMPDEST PUSH1 0x0 DUP1 DUP4 SGT DUP1 ISZERO PUSH2 0x366 JUMPI POP PUSH1 0x0 DUP3 SGT JUMPDEST ISZERO PUSH2 0x3B7 JUMPI DUP2 PUSH1 0x0 SLOAD SUB DUP4 SGT ISZERO PUSH2 0x3B2 JUMPI PUSH1 0x40 MLOAD PUSH32 0x8C379A000000000000000000000000000000000000000000000000000000000 DUP2 MSTORE PUSH1 0x4 ADD PUSH2 0x3A9 SWAP1 PUSH2 0x920 JUMP JUMPDEST PUSH1 0x40 MLOAD DUP1 SWAP2 SUB SWAP1 REVERT JUMPDEST PUSH2 0x415 JUMP JUMPDEST PUSH1 0x0 DUP4 SLT DUP1 ISZERO PUSH2 0x3C7 JUMPI POP PUSH1 0x0 DUP3 SLT JUMPDEST ISZERO PUSH2 0x414 JUMPI DUP2 PUSH1 0x1 SLOAD SUB DUP4 SLT ISZERO PUSH2 0x413 JUMPI PUSH1 0x40 MLOAD PUSH32 0x8C379A000000000000000000000000000000000000000000000000000000000 DUP2 MSTORE PUSH1 0x4 ADD PUSH2 0x40A SWAP1 PUSH2 0x960 JUMP JUMPDEST PUSH1 0x40 MLOAD DUP1 SWAP2 SUB SWAP1 REVERT JUMPDEST JUMPDEST JUMPDEST DUP2 DUP4 ADD SWAP1 POP SWAP3 SWAP2 POP POP JUMP JUMPDEST PUSH1 0x0 DUP1 DUP4 SGT DUP1 ISZERO PUSH2 0x431 JUMPI POP PUSH1 0x0 DUP3 SLT JUMPDEST ISZERO PUSH2 0x482 JUMPI DUP2 PUSH1 0x0 SLOAD ADD DUP4 SGT ISZERO PUSH2 0x47D JUMPI PUSH1 0x40 MLOAD PUSH32 0x8C379A000000000000000000000000000000000000000000000000000000000 DUP2 MSTORE PUSH1 0x4 ADD PUSH2 0x474 SWAP1 PUSH2 0x920 JUMP JUMPDEST PUSH1 0x40 MLOAD DUP1 SWAP2 SUB SWAP1 REVERT JUMPDEST PUSH2 0x4E0 JUMP JUMPDEST PUSH1 0x0 DUP4 SLT DUP1 ISZERO PUSH2 0x492 JUMPI POP PUSH1 0x0 DUP3 SGT JUMPDEST ISZERO PUSH2 0x4DF JUMPI DUP2 PUSH1 0x1 SLOAD ADD DUP4 SLT ISZERO PUSH2 0x4DE JUMPI PUSH1 0x40 MLOAD PUSH32 0x8C379A000000000000000000000000000000000000000000000000000000000 DUP2 MSTORE PUSH1 0x4 ADD PUSH2 0x4D5 SWAP1 PUSH2 0x960 JUMP JUMPDEST PUSH1 0x40 MLOAD DUP1 SWAP2 SUB SWAP1 REVERT JUMPDEST JUMPDEST JUMPDEST DUP2 DUP4 SUB SWAP1 POP SWAP3 SWAP2 POP POP JUMP JUMPDEST PUSH1 0x0 PUSH1 0x2 SLOAD PUSH2 0x4F9 DUP5 PUSH2 0x24D JUMP JUMPDEST SLT PUSH2 0x561 JUMPI PUSH2 0x507 DUP4 PUSH2 0x24D JUMP JUMPDEST PUSH1 0x0 SLOAD DUP2 PUSH2 0x511 JUMPI INVALID JUMPDEST SDIV PUSH2 0x51B DUP4 PUSH2 0x24D JUMP JUMPDEST SGT ISZERO PUSH2 0x55C JUMPI PUSH1 0x40 MLOAD PUSH32 0x8C379A000000000000000000000000000000000000000000000000000000000 DUP2 MSTORE PUSH1 0x4 ADD PUSH2 0x553 SWAP1 PUSH2 0x900 JUMP JUMPDEST PUSH1 0x40 MLOAD DUP1 SWAP2 SUB SWAP1 REVERT JUMPDEST PUSH2 0x5D2 JUMP JUMPDEST PUSH1 0x2 SLOAD PUSH2 0x56D DUP4 PUSH2 0x24D JUMP JUMPDEST SLT PUSH2 0x5D1 JUMPI PUSH2 0x57B DUP3 PUSH2 0x24D JUMP JUMPDEST PUSH1 0x0 SLOAD DUP2 PUSH2 0x585 JUMPI INVALID JUMPDEST SDIV PUSH2 0x58F DUP5 PUSH2 0x24D JUMP JUMPDEST SGT ISZERO PUSH2 0x5D0 JUMPI PUSH1 0x40 MLOAD PUSH32 0x8C379A000000000000000000000000000000000000000000000000000000000 DUP2 MSTORE PUSH1 0x4 ADD PUSH2 0x5C7 SWAP1 PUSH2 0x980 JUMP JUMPDEST PUSH1 0x40 MLOAD DUP1 SWAP2 SUB SWAP1 REVERT JUMPDEST JUMPDEST JUMPDEST DUP2 DUP4 MUL SWAP1 POP SWAP3 SWAP2 POP POP JUMP JUMPDEST PUSH1 0x1 SLOAD DUP2 JUMP JUMPDEST PUSH1 0x0 DUP1 PUSH1 0x0 PUSH28 0xFFFFFFFFFFFFFFFFFFFFFFFFFFFFFFFFFFFFFFFFFFFFFFFFFFFFFFFF SWAP1 POP PUSH1 0x2 PUSH1 0x1 DUP3 SUB PUSH28 0xFFFFFFFFFFFFFFFFFFFFFFFFFFFFFFFFFFFFFFFFFFFFFFFFFFFFFFFF AND DUP2 PUSH2 0x632 JUMPI INVALID JUMPDEST DIV PUSH28 0xFFFFFFFFFFFFFFFFFFFFFFFFFFFFFFFFFFFFFFFFFFFFFFFFFFFFFFFF AND DUP5 PUSH28 0xFFFFFFFFFFFFFFFFFFFFFFFFFFFFFFFFFFFFFFFFFFFFFFFFFFFFFFFF AND GT PUSH2 0x688 JUMPI PUSH1 0x0 DUP5 ADD SWAP2 POP DUP2 PUSH1 0x1B SIGNEXTEND SWAP3 POP POP POP PUSH2 0x699 JUMP JUMPDEST PUSH1 0x1 DUP2 DUP6 SUB SUB SWAP2 POP DUP2 PUSH1 0x1B SIGNEXTEND SWAP3 POP POP POP JUMPDEST SWAP2 SWAP1 POP JUMP JUMPDEST PUSH1 0x0 DUP2 CALLDATALOAD SWAP1 POP PUSH2 0x6AD DUP2 PUSH2 0xA03 JUMP JUMPDEST SWAP3 SWAP2 POP POP JUMP JUMPDEST PUSH1 0x0 DUP2 CALLDATALOAD SWAP1 POP PUSH2 0x6C2 DUP2 PUSH2 0xA1A JUMP JUMPDEST SWAP3 SWAP2 POP POP JUMP JUMPDEST PUSH1 0x0 PUSH1 0x20 DUP3 DUP5 SUB SLT ISZERO PUSH2 0x6DA JUMPI PUSH1 0x0 DUP1 REVERT JUMPDEST PUSH1 0x0 PUSH2 0x6E8 DUP5 DUP3 DUP6 ADD PUSH2 0x69E JUMP JUMPDEST SWAP2 POP POP SWAP3 SWAP2 POP POP JUMP JUMPDEST PUSH1 0x0 DUP1 PUSH1 0x40 DUP4 DUP6 SUB SLT ISZERO PUSH2 0x704 JUMPI PUSH1 0x0 DUP1 REVERT JUMPDEST PUSH1 0x0 PUSH2 0x712 DUP6 DUP3 DUP7 ADD PUSH2 0x69E JUMP JUMPDEST SWAP3 POP POP PUSH1 0x20 PUSH2 0x723 DUP6 DUP3 DUP7 ADD PUSH2 0x69E JUMP JUMPDEST SWAP2 POP POP SWAP3 POP SWAP3 SWAP1 POP JUMP JUMPDEST PUSH1 0x0 PUSH1 0x20 DUP3 DUP5 SUB SLT ISZERO PUSH2 0x73F JUMPI PUSH1 0x0 DUP1 REVERT JUMPDEST PUSH1 0x0 PUSH2 0x74D DUP5 DUP3 DUP6 ADD PUSH2 0x6B3 JUMP JUMPDEST SWAP2 POP POP SWAP3 SWAP2 POP POP JUMP JUMPDEST PUSH2 0x75F DUP2 PUSH2 0x9D1 JUMP JUMPDEST DUP3 MSTORE POP POP JUMP JUMPDEST PUSH1 0x0 PUSH2 0x772 PUSH1 0x10 DUP4 PUSH2 0x9C0 JUMP JUMPDEST SWAP2 POP PUSH32 0x77696C6C206F766572666C6F773A206100000000000000000000000000000000 PUSH1 0x0 DUP4 ADD MSTORE PUSH1 0x20 DUP3 ADD SWAP1 POP SWAP2 SWAP1 POP JUMP JUMPDEST PUSH1 0x0 PUSH2 0x7B2 PUSH1 0x1C DUP4 PUSH2 0x9C0 JUMP JUMPDEST SWAP2 POP PUSH32 0x77696C6C206F766572666C6F77206D6178207369676E656420696E7400000000 PUSH1 0x0 DUP4 ADD MSTORE PUSH1 0x20 DUP3 ADD SWAP1 POP SWAP2 SWAP1 POP JUMP JUMPDEST PUSH1 0x0 PUSH2 0x7F2 PUSH1 0xD DUP4 PUSH2 0x9C0 JUMP JUMPDEST SWAP2 POP PUSH32 0x77696C6C206F766572666C6F7700000000000000000000000000000000000000 PUSH1 0x0 DUP4 ADD MSTORE PUSH1 0x20 DUP3 ADD SWAP1 POP SWAP2 SWAP1 POP JUMP JUMPDEST PUSH1 0x0 PUSH2 0x832 PUSH1 0x1C DUP4 PUSH2 0x9C0 JUMP JUMPDEST SWAP2 POP PUSH32 0x77696C6C206F766572666C6F77206D696E207369676E656420696E7400000000 PUSH1 0x0 DUP4 ADD MSTORE PUSH1 0x20 DUP3 ADD SWAP1 POP SWAP2 SWAP1 POP JUMP JUMPDEST PUSH1 0x0 PUSH2 0x872 PUSH1 0x10 DUP4 PUSH2 0x9C0 JUMP JUMPDEST SWAP2 POP PUSH32 0x77696C6C206F766572666C6F773A206200000000000000000000000000000000 PUSH1 0x0 DUP4 ADD MSTORE PUSH1 0x20 DUP3 ADD SWAP1 POP SWAP2 SWAP1 POP JUMP JUMPDEST PUSH1 0x0 PUSH2 0x8B2 PUSH1 0x15 DUP4 PUSH2 0x9C0 JUMP JUMPDEST SWAP2 POP PUSH32 0x63616E6E6F7420646976696465206279207A65726F0000000000000000000000 PUSH1 0x0 DUP4 ADD MSTORE PUSH1 0x20 DUP3 ADD SWAP1 POP SWAP2 SWAP1 POP JUMP JUMPDEST PUSH1 0x0 PUSH1 0x20 DUP3 ADD SWAP1 POP PUSH2 0x8FA PUSH1 0x0 DUP4 ADD DUP5 PUSH2 0x756 JUMP JUMPDEST SWAP3 SWAP2 POP POP JUMP JUMPDEST PUSH1 0x0 PUSH1 0x20 DUP3 ADD SWAP1 POP DUP2 DUP2 SUB PUSH1 0x0 DUP4 ADD MSTORE PUSH2 0x919 DUP2 PUSH2 0x765 JUMP JUMPDEST SWAP1 POP SWAP2 SWAP1 POP JUMP JUMPDEST PUSH1 0x0 PUSH1 0x20 DUP3 ADD SWAP1 POP DUP2 DUP2 SUB PUSH1 0x0 DUP4 ADD MSTORE PUSH2 0x939 DUP2 PUSH2 0x7A5 JUMP JUMPDEST SWAP1 POP SWAP2 SWAP1 POP JUMP JUMPDEST PUSH1 0x0 PUSH1 0x20 DUP3 ADD SWAP1 POP DUP2 DUP2 SUB PUSH1 0x0 DUP4 ADD MSTORE PUSH2 0x959 DUP2 PUSH2 0x7E5 JUMP JUMPDEST SWAP1 POP SWAP2 SWAP1 POP JUMP JUMPDEST PUSH1 0x0 PUSH1 0x20 DUP3 ADD SWAP1 POP DUP2 DUP2 SUB PUSH1 0x0 DUP4 ADD MSTORE PUSH2 0x979 DUP2 PUSH2 0x825 JUMP JUMPDEST SWAP1 POP SWAP2 SWAP1 POP JUMP JUMPDEST PUSH1 0x0 PUSH1 0x20 DUP3 ADD SWAP1 POP DUP2 DUP2 SUB PUSH1 0x0 DUP4 ADD MSTORE PUSH2 0x999 DUP2 PUSH2 0x865 JUMP JUMPDEST SWAP1 POP SWAP2 SWAP1 POP JUMP JUMPDEST PUSH1 0x0 PUSH1 0x20 DUP3 ADD SWAP1 POP DUP2 DUP2 SUB PUSH1 0x0 DUP4 ADD MSTORE PUSH2 0x9B9 DUP2 PUSH2 0x8A5 JUMP JUMPDEST SWAP1 POP SWAP2 SWAP1 POP JUMP JUMPDEST PUSH1 0x0 DUP3 DUP3 MSTORE PUSH1 0x20 DUP3 ADD SWAP1 POP SWAP3 SWAP2 POP POP JUMP JUMPDEST PUSH1 0x0 DUP2 SWAP1 POP SWAP2 SWAP1 POP JUMP JUMPDEST PUSH1 0x0 PUSH28 0xFFFFFFFFFFFFFFFFFFFFFFFFFFFFFFFFFFFFFFFFFFFFFFFFFFFFFFFF DUP3 AND SWAP1 POP SWAP2 SWAP1 POP JUMP JUMPDEST PUSH2 0xA0C DUP2 PUSH2 0x9D1 JUMP JUMPDEST DUP2 EQ PUSH2 0xA17 JUMPI PUSH1 0x0 DUP1 REVERT JUMPDEST POP JUMP JUMPDEST PUSH2 0xA23 DUP2 PUSH2 0x9DB JUMP JUMPDEST DUP2 EQ PUSH2 0xA2E JUMPI PUSH1 0x0 DUP1 REVERT JUMPDEST POP JUMP INVALID LOG2 PUSH5 0x6970667358 0x22 SLT KECCAK256 0xDD GASLIMIT SIGNEXTEND 0xC3 PUSH12 0x9D89EC516A912F10E0FF85DB ADDRESS LOG0 0xEC DUP16 DUP3 PUSH17 0xB4858436E85E08076264736F6C63430006 ADDMOD STOP CALLER "
        },
        "methodIdentifiers": {
          "MAX_SIGNED_INT()": "1b755565",
          "MIN_SIGNED_INT()": "e09c7e3c",
          "ROOT()": "5909c12f",
          "abs(int256)": "1b5ac4b5",
          "add(int256,int256)": "a5f3c23b",
          "convertUintToInt(uint224)": "99e08d3a",
          "div(int256,int256)": "43509138",
          "mul(int256,int256)": "bbe93d91",
          "square(int256)": "2797ec45",
          "sub(int256,int256)": "adefc37b"
        }
      }
    }
  }
}